:020000021000EC
:10F0000000F0002035F2010065F2010015F6010064
:10F0100069F201006BF201006DF2010000000000D6
:10F020000000000000000000000000006FF201007E
:10F0300071F201000000000073F2010075F201009E
:10F0400079F201007BF201007DF201007FF2010004
:10F0500081F2010083F20100D5F6010087F2010080
:10F0600089F201008BF201008DF201008FF20100A4
:10F0700091F2010093F2010095F2010097F2010074
:10F0800099F201009BF201006D4702009FF201001E
:10F09000A1F20100A3F2010061F60100A7F2010054
:10F0A000A9F20100ABF20100ADF20100AFF20100E4
:10F0B000B1F20100B3F2010077F2010077F2010032
:10F0C000B5F20100B7F20100B9F20100BBF2010094
:0CF0D000BDF20100BFF20100C1F201001E
:10F0DC00354936480A1A02D0072291438D463449E5
:10F0EC0034480A1A06D00722914381F30988022278
:10F0FC0082F3148830483149314A00F043F83148E2
:10F10C003149324A00F03EF831483249324A00F077
:10F11C0039F832483249334A00F034F8324833492E
:10F12C00334A00F02FF833483349344A00F02AF8B8
:10F13C0033483449344A00F025F834483449002225
:10F14C0000F02BF833483449002200F026F83348FD
:10F15C003349091A082903DB0022026004300160DC
:10F16C001F482049884205D00268043003B49047F8
:10F17C0003BCF7E700208646EC4600200021294A14
:10F18C009047FEE7884207D0521A05D00378013029
:10F19C000B700131013AF9D17047884202D00270EC
:10F1AC000130FAE77047000000F0002000E8002072
:10F1BC0000F0002000F00020DC580300C0190020F3
:10F1CC00C41A0020C4F20100C4F201009C490300DF
:10F1DC00DC580300C0190020C01900209C49030012
:10F1EC009C4903009C4903009C4903009C49030073
:10F1FC009C4903009C4903009C490300DC58030014
:10F20C00E0590300C41A0020C41A0020C41A0020BC
:10F21C00E8490020E8490020E8490020E84900209E
:10F22C00E84D00207DF4010008484FF007018843A9
:10F23C008546074880470748016841F47001016022
:10F24C00BFF34F8FBFF36F8FFFF742BF00F000206B
:10F25C005582020088ED00E0FEE7FEE7FEE7FEE7E0
:10F26C00FEE7FEE7FEE7FEE7FEE7FEE7FEE7FEE76A
:10F27C00FEE7FEE7FEE7FEE7FEE7FEE7FEE7FEE75A
:10F28C00FEE7FEE7FEE7FEE7FEE7FEE7FEE7FEE74A
:10F29C00FEE7FEE7FEE7FEE7FEE7FEE7FEE7FEE73A
:10F2AC00FEE7FEE7FEE7FEE7FEE7FEE7FEE7FEE72A
:08F2BC00FEE7FEE7FEE700BFDC
:10F2C4003EDF704700204DE04FF0A042D2F80435F5
:10F2D400D94301F08061C2F8081503F08063C2F8D5
:10F2E4000C35224B1A68224B224900BF00BF00BFD5
:10F2F40000BF00BF00BF00BF00BF8A422FD000BFC5
:10F3040000BF00BF00BF00BF00BF00BF00BF00BF01
:10F3140000BF00BF00BF00BF00BF00BF00BF00BFF1
:10F3240000BF00BF00BF00BF00BF00BF00BF00BFE1
:10F3340000BF00BF00BF00BF00BF00BF00BF00BFD1
:10F3440000BF00BF00BF00BF00BF00BF00BF00BFC1
:10F3540000BF00BF00BF00BF00BF00BF00BF013B34
:10F36400C3D101300428AFDD704700BF5C1A002010
:10F37400A08601000024F40010B582B00C46124BA4
:10F384001B6813F4804F03D0104B1B68032B0FDC56
:10F394004FF0A042D2F80435D94301F00071C2F80D
:10F3A400081503F00073C2F80C35204602B010BDF6
:10F3B400074BD3F804350191064A009248220649C6
:10F3C400042006F02BFAE3E7501A00204C1A002020
:10F3D40000B000403C4A0300344A030000B583B047
:10F3E400194B1B6813F4804F03D0184B1B68032B75
:10F3F40015DC1748174B4360174B8360002115F049
:10F404002DF9B8B9124B18880AF09EFBB8B901213E
:10F414004FF4F01000F050F903B05DF804FB0F4B0B
:10F42400D3F804350E4A00922C220E49042006F02B
:10F43400F5F9DEE70C4A2F2100F0C2F8E2E70A4AA8
:10F44400302100F0BDF8E2E7501A00204C1A0020E9
:10F45400C41A002071F401007DF3010000B00040E3
:10F464009C490300344A0300EC49030008B5192001
:10F4740000F016F908BD000000B583B0394A042134
:10F484004FF4C04006F0AEF9374B1B6813F4804FBD
:10F494000DD0364B1B68032B09DD354BD3F80435EF
:10F4A400344A009250223449042006F0B7F900F09F
:10F4B40047F93248324B8363324B0360324B43602B
:10F4C400072380F83C3001220274C3740DF0DCFC85
:10F4D400002842D12D4B1A682D4B2E4900BF00BF86
:10F4E40000BF00BF00BF00BF00BF00BF8A422FD0D3
:10F4F40000BF00BF00BF00BF00BF00BF00BF00BF10
:10F5040000BF00BF00BF00BF00BF00BF00BF00BFFF
:10F5140000BF00BF00BF00BF00BF00BF00BF00BFEF
:10F5240000BF00BF00BF00BF00BF00BF00BF00BFDF
:10F5340000BF00BF00BF00BF00BF00BF00BF00BFCF
:10F5440000BF00BF00BF00BF00BF00BF00BF00BFBF
:10F55400013BC3D1FFF7B4FEBCE70F4A5F2100F0C3
:10F564002FF8B7E7BD570200501A00204C1A0020AC
:10F5740000B00040BC490300344A0300C019002015
:10F58400544A0300C9F20100E1F301005C1A0020AF
:10F59400A08601000024F400EC49030048DF704712
:10F5A40061DF70474FF0A0434FF4F012C3F8082511
:10F5B400C3F80C25EFF3108372B60028FDD1704711
:10F5C40000B585B00D4B1B6813F4804F10D00C4B65
:10F5D4001B68002B0CDD0B4BD3F804350390029110
:10F5E4000192094A009248220849012006F016F9BE
:10F5F4000120FFF7D7FF05B05DF804FB501A002087
:10F604004C1A002000B00040744A0300BF4A0300B3
:10F6140000B583B00C4B1B6813F4804F0DD00B4B1B
:10F624001B68002B09DB0A4BD3F80435094A009206
:10F6340054220949002006F0F1F80120FFF7B2FF37
:10F6440003B05DF804FB00BF501A00204C1A0020E0
:10F6540000B00040644A0300BF4A030000B583B011
:10F6640002E0019803F00AFE01A8FFF797FF0028C3
:10F67400F7D04F23ADF8023005E0084803F0FCFD55
:10F684004F23ADF802300DF102010448FFF788FF63
:10F694000028F2D003B05DF804FB00BFD01A0020AC
:10F6A4004FF0A043D3F80425012303FA00F00242EB
:10F6B4000CBF18460020704721B94FF0A043C3F88F
:10F6C400080570474FF0A043C3F80C0570470000CD
:10F6D40010B50024144BC3F87C4103E0D11A14E0A4
:10F6E4000134E4B2032C1ED84FF0A043D3F8102504
:10F6F4000E4B195D01238B409343F1D00C4B1B68D7
:10F704000C4AD2F80425991AE8D441F69A1399427E
:10F71400E6D9084BD3F80425054B1A60064B1B6841
:10F7240020469847DCE710BD00600040EC4A030027
:10F73400301B002000B000402C1B00200620704726
:10F744004FF0A0430322C3F86427C3F86827C3F823
:10F754006C274FF00072C3F808254FF00062C3F81D
:10F7640008254FF08062C3F80825704708B5074B99
:10F774001B780BB9062008BD054B1B680BB19847D5
:10F7840008BD0146034802F027FD08BD481B0020C0
:10F794004C1B0020341B0020064B074A92E8030050
:10F7A40083E803000833443292E8030083E803004B
:10F7B400704700BF501B00206000001000487047D5
:10F7C400501B002043DF704770B58CB003460E46D3
:10F7D40015466C46006859689A68DB680FC430683F
:10F7E4007168B268F3680FC46846FFF7EBFF08ACB2
:10F7F4000FCC28606960AA60EB600CB070BD00009B
:10F80400002308E0074901EBC30000224280426064
:10F8140001F8332001331F2BF4D90022024B1A6064
:10F82400704700BF601B0020601C002030B40546F8
:10F834000F4B1B6800240AE01F230E4A12F8330002
:10F84400A0B102EBC3025288AA4207D001341F2C94
:10F854000BD85A1E002BEFD01346EEE7054A02EBF5
:10F86400C30252688A42F1D100E0002030BC7047E4
:10F87400601C0020601B002030B40A4A13680A4C44
:10F8840004EBC30568806960012104F833100B445C
:10F894001360202B01D030BC70470022014B1A604A
:10F8A400F9E700BF601C0020601B0020C0F30C03BC
:10F8B4008B4202D3C91A08447047C91A0844A0F5F8
:10F8C40000507047C37D002B41D083780A7802F042
:10F8D400800203F07F0313430B7002780B7803F06C
:10F8E4007F0343EAC2130B7003787BB330B44378CD
:10F8F400082B14BF002201224B7803F07F0343EA54
:10F90400C2134B70858803F08003C5F38614234328
:10F914004B708A7802F0030242EA8502D2B28A70FE
:10F92400857902F0FC02C5F3C10422438A70CB78C6
:10F9340003F01F0343EA4513DBB2CB70C27903F033
:10F94400E00302F01F021343CB7030BC704783788E
:10F954000A7802F0BF029B0103F0400313430B70CB
:10F96400C27803F0C00302F03F0213430B70B4E704
:10F9740030B405460023184607E06C22104C02FB05
:10F984000342928AAA4210D00133032B16DC6C2264
:10F994000B4C02FB034292F84420002AEDD10028CC
:10F9A400F2D16C2202FB0340EEE76C2202FB03421D
:10F9B40092888A42E8D16C2000FB034030BC704737
:10F9C400D81C002010B403460A4689694978C170DE
:10F9D4009169097881F00101817091694162118A0C
:10F9E4000B2903D8D17A49B3012100E00121197010
:10F9F40041B31649897D19BB04205870118A01440A
:10FA04000B31134880FB0140C917C1EB6001013978
:10FA1400D971002199710021D97503F10C0492E880
:10FA2400030084E803005169196211899982917A6B
:10FA34009975D2699A625DF8044B70470021D6E744
:10FA44000820DAE704215970E5E700BFC01C002054
:10FA5400ABAAAA2A30B403460C4609788170002167
:10FA64004162A1680B2903D8217BF1B1012100E097
:10FA7400012119700020587029B1A1680731C90803
:10FA84000139D97198710121D97503F10C0504F17B
:10FA9400100103C985E80300E1899982A16919620B
:10FAA400217F99759A6230BC70470021E1E700001C
:10FAB4000021164B1B68994226D20023144A02EBFC
:10FAC400C102526893421DD210B4114A52F8312037
:10FAD40002EBC30412F8332082420DD001330C4AE6
:10FAE40002EBC10252689342EFD30131074B1B680A
:10FAF400994205D20023F2E760685DF8044B704731
:10FB04000020FAE70131D4E700207047641C00208C
:10FB1400681C002070B58CB006460D4614462C2295
:10FB2400002101A814F0D4FE0C238DF80430ADF8A4
:10FB340008604FF0000365F300038DF80A308DF878
:10FB44000B4001A801F09CFB0CB070BD30B58DB02A
:10FB540005460C462C22002101A814F0B9FE0D2301
:10FB64008DF8043002958DF80C4001A801F088FB53
:10FB74000DB030BD00B58DB043784BB9084B9A42F7
:10FB840006D001238DF80430029201A801F078FB1D
:10FB9400044B186804F0EEFC0DB05DF804FB00BFE4
:10FBA4005EE6655E741C0020F0B40D684C688F68D6
:10FBB400CE68D5601461576196610D694C69D56151
:10FBC40014620378DB091370D17DF9B1037803F073
:10FBD4007F0393700023537013789BB143789B0188
:10FBE40003F4FE53817843EA910393808378DB0026
:10FBF40003F01803C17843EA51139371C37803F0F7
:10FC04001F03D37100235362F0BC70470178C1F322
:10FC140080119170017801F03F01D17043B14378B4
:10FC240013F0800F02D008235370D5E70423FBE7B9
:10FC340004235370D0E770B50C461E4603788BB18D
:10FC440004252A44A26000F10C032360836A6360E4
:10FC5400204605F047FA024610B923691D44356071
:10FC6400104670BD0125ECE72DE9F0418EB00D463C
:10FC740016461C46804600282DD0002D33D0002C7B
:10FC840039D0636A0233059304F10C00A378002B86
:10FC940039D00121627801AF3B46082A14BF002203
:10FCA400012204F075FD0697CDF81C80B2B2ADF8C0
:10FCB40020200B9515440C9563788DF83430237B04
:10FCC400022B22D00023ADF8283005A804F058FDFB
:10FCD4000EB0BDE8F0817846144B1B680BB1984711
:10FCE400CBE700DEC9E77846104B1B680BB1984799
:10FCF400C5E700DEC3E778460C4B1B680BB1984799
:10FD0400BFE700DEBDE70221C4E723692BB1236905
:10FD140009931023ADF82830D7E77846034B1B68C6
:10FD24000BB19847F3E700DEF1E700BF4431002050
:10FD34002DE9F04186B004460D46C37D002B43D027
:10FD4400082605FB06F8E3799D423FD0A5716B4672
:10FD5400324601A92046FFF76EFF074670BB4DB936
:10FD640094F84F3033B9A369C3F30C03A380012380
:10FD740084F84F30E37DA3B994F84E308BB925B1A4
:10FD84007846164B1B6833B39847B4F8461062782C
:10FD940023468A1AA16E0846FFF766FF012384F8FA
:10FDA4004E3005992046FFF78DFDA16E3246414441
:10FDB400009814F063FD01A805F0BEF9B7FA87F0C6
:10FDC400400906B0BDE8F0810C26BAE7B4F84660F5
:10FDD400A6EB0806BAE700DED7E700BF44310020EF
:10FDE40070B5054690F84C40002601E00134E4B2B9
:10FDF400EB799C420ED8AA6C0123A3401A42F5D198
:10FE040021462846FFF794FF20B10136631C85F88C
:10FE14004C30EBE7304670BDF0B587B044781444FD
:10FE2400C37D33B10B23A34205D20924204607B076
:10FE3400F0BD0F23F7E716460F4605466B462246EC
:10FE440001A9FFF7F8FE04460028EFD105992846DA
:10FE5400FFF738FDEB7D43B132463946009814F084
:10FE64000DFD01A805F068F9E0E72B46324600993C
:10FE74003846FFF7F9FEF4E710B5044690F844302D
:10FE8400012B04D078460E4B1B687BB19847237B2B
:10FE9400012B0DD00B4BDB68A36303F02FFEA16B8A
:10FEA400014404F12C0003F081FD10BD00DEEEE7F7
:10FEB400A37D044AD168126902FB0313A363ECE730
:10FEC40044310020C01C002038B5002400E0013477
:10FED400032C13D86C230A4A03FB042393F84430FD
:10FEE400012BF4D16C2505FB04252846FFF778FF88
:10FEF4000028ECD02846FFF7BFFFE8E738BD00BF75
:10FF0400D81C002038B5044690F84430022B04D0A5
:10FF14007846084B1B6853B19847074B1D6803F09C
:10FF2400EDFD291804F12C0003F040FD38BD00DE7E
:10FF3400F3E700BF44310020C01C002038B504465C
:10FF440090F84430022B04D078460B4B1B688BB1DD
:10FF540098470A4B5D7D5A689B6803FB052503F0AF
:10FF6400CDFD411904F14C0003F020FD012384F878
:10FF7400643038BD00DEECE744310020C01C0020B2
:10FF840010B504460C4B1B68806E98470023A3668B
:10FF940004F12C0003F0D4FC94F84430022B05D077
:10FFA400002084F8440002F073FC10BD04F14C00FE
:10FFB40003F0C6FCF4E700BF781C002010B590B035
:10FFC400044690F84430012B05D078461A4B1B6840
:10FFD400002B2FD0984701238DF81430236D0693FE
:10FFE40005A801F04DF92046FFF7CAFF0B238DF851
:0CFFF4000C3000238DF80D308DF80E301D
:020000022000DC
:10000000049303A8FFF7B4FBA0B10D4B1B6813F0DA
:10001000200F0FD00B4B1B68012B0BDD0A4BD3F8C5
:1000200004350190094A00924FF4E1720849022018
:1000300005F0F6FB10B010BD00DECEE74431002025
:10004000501A00204C1A002000B00040444B03001E
:10005000384B030030B585B00D460446002859D012
:1000600008238DF808308DF8095000238DF80A30E8
:10007000039302A8FFF77CFBA0B1334B1B6813F07E
:10008000200F0FD0314B1B68012B0BDD304BD3F809
:10009000043501902F4A009240F2AB122E49022003
:1000A00005F0BEFB23782BB978462C4B1B68002B40
:1000B00038D0984700238DF80830E36903F0010336
:1000C0008DF80930A38AADF80A30A188A069FFF73E
:1000D000EFFB0390224A1368591C116003F00702DA
:1000E000204B03EBC20304AA12E9030083E80300D8
:1000F0002946206DFFF72CFD2046FFF743FF124BEA
:100100001B6813F0040F03D0104B1B68032B0BDC90
:1001100005B030BD7846114B1B680BB198479FE77F
:1001200000DE9DE700DEC5E7094BD3F8043594F8FF
:10013000442001920C4A009240F2B1120649042078
:1001400005F06EFBE4E700BF501A00204C1A0020B7
:1001500000B00040444B0300384B03004431002002
:10016000BC1C00207C1C0020F04A030008B5084697
:100170000021FFF76FFF08BD10B50C4691F8443021
:10018000012B04D078460F4B1B6853B1984794F865
:100190004D306BB9237B012B05D02046FFF710FFB4
:1001A00010BD00DEF3E700212046FFF753FF10BD2E
:1001B000013B84F84D30002384F84C302046FFF793
:1001C00011FE10BD44310020062900D07047F0B563
:1001D00085B00E4604460178890101F4FE5140784D
:1001E000A578E3781B0443EA0563257943EA0523F0
:1001F00065791D4341EA9001D089FFF7BBFB0746B3
:1002000018B190F84430012B15D02F4B1B6813F018
:10021000040F0ED02D4B1B68012B0ADD2C4BD3F89D
:1002200004352C4A009240F2B2422B49022005F0DC
:10023000F7FA05B0F0BD06238DF8083000238DF8DD
:1002400009308DF80A60039402A8FFF791FAA0B173
:100250001D4B1B6813F0200F0FD01C4B1B68012B8C
:100260000BDD1B4BD3F8043501901C4A009240F281
:10027000B6421949022005F0D3FABC6C2C43BC6489
:10028000BDB13B7823B97846154B1B68B3B198478D
:10029000FB795A1C01239340013B9C4210D0002360
:1002A00087F84C303846FFF79DFD3846FFF7E6FDEE
:1002B000BFE703213846FFF7CDFEBAE700DEE7E7E8
:1002C0003846FFF77DFEB4E7501A00204C1A002094
:1002D00000B00040884B0300384B0300444B030040
:1002E000443100202DE9F04389B080460F46144682
:1002F0001E4695780DB32846FFF7DCFB8146C8B152
:100300008DF80050236A0693A38AADF80E3004AB33
:1003100004F10C0292E8030083E80300A37D8DF84A
:100320001C30CDF80480029723788DF80C303146CC
:100330006846C84709B0BDE8F083FFF745FFF9E715
:100340002DE9F04104460D4616461F46531EDBB20A
:10035000012B05D97846344B1B68002B49D09847B0
:10036000A36E2BB17846304B1B68002B43D09847C7
:100370002E4B1B6838469847A066002850D02B4665
:10038000224605F12001D3F80080D3F804C0D3F849
:1003900008E0D868C2F80080C2F804C0C2F808E0DB
:1003A000D060103310328B42EDD1186859689B68C9
:1003B0001060516093600023A364A4F84670A9887C
:1003C000A869FFF775FAA061012E16D0184BA36239
:1003D000002384F86430174B6365E465164B636350
:1003E000E463012002F056FA84F844600120BDE87D
:1003F000F08100DEB4E700DEBAE7104B1B7D84F825
:100400004D30002384F84E3084F84F3084F84C305F
:10041000AB6A2365064BA362094B6363E463E0E7C1
:100420000020BDE8F08100BF44310020701C002096
:100430005EE6655E711002006D010200C01C0020C6
:100440007901020000B585B000238DF80F3098B116
:100450000346084602330B600DF10F0104F096F9D4
:100460009DF80F3043B10D4B1B6813F0040F03D000
:100470000B4B1B68032B04DC9DF80F0005B05DF8E7
:1004800004FB084BD3F80435074A009240F2F222ED
:100490000649042005F0C4F9EEE700BF501A002019
:1004A0004C1A002000B00040F04B0300384B030012
:1004B0002DE9F0438FB004460E4615461F46D0F88E
:1004C0001890037823B181884846FFF7F1F9A061BD
:1004D00004F10C00A378002B3AD0012162780DF1D1
:1004E00028084346082A14BF0022012204F052F9CA
:1004F000C4F81890CDF8088003966378EA1A92B28F
:10050000ADF810203244089207978DF8243000236C
:10051000ADF81830237B022B1CD0A3786BB3237B60
:10052000022B1BD02546002345F8243F2A46E178BC
:10053000206A0CF033FA606A98B101A9FFF782FFD4
:1005400000283CD12A46E178206A0CF027FAF2E72D
:100550000221C3E71023ADF81830DEE723690593C5
:10056000E0E7237B022B2ED104F10C01E0890CF093
:10057000DFFA0028D3D1052022E000236362237B29
:10058000012B0DD02146002341F8243FA08A0CF016
:100590002DFA01A9606AFFF755FF70B905200FE039
:1005A00004F12401E0890CF021FA01A9606AFFF747
:1005B00049FF0028E6D0002002E0002000E00020F3
:1005C0000FB0BDE8F0830520FAE70000F0B5F1B008
:1005D00006460D4614461F4610AB0A460146204605
:1005E000FFF766FF00282FD0454B1B6813F0040F60
:1005F00003D0444B1B68052B74DC03238DF81430A7
:10060000A378002B7AD000238DF815308DF8165082
:10061000069605A8FFF7ACF8002861D0384B1B6898
:1006200013F0200F5CD0374B1B68012B58DD364B85
:10063000D3F804350190354A009240F227523449EC
:10064000022005F0EDF84BE001238DF81430002373
:100650008DF815306378EB1A8DF81630069605A8DC
:10066000FFF786F8A0B1264B1B6813F0200F0FD0C0
:10067000244B1B68012B0BDD234BD3F80435019071
:10068000224A009240F20E522149022005F0C8F899
:1006900003AB01228DF80C20A28AADF80E200022B7
:1006A00004928DF8142010AA06926278AD1AADF863
:1006B0001C5008AA93E8030082E803000AAB04F187
:1006C0000C0292E8030083E80300A37D8DF8383024
:1006D000236A0C93636A0D930F9705A800F0D2FD6F
:1006E00071B0F0BD084BD3F804350A4A009240F2CD
:1006F00021520749062005F093F87EE7022383E79D
:10070000501A00204C1A002000B00040444B030057
:10071000384B0300144C030010B5D47D14B9FFF717
:1007200055FF10BDFFF7DEFD10BD00002DE9F043C1
:1007300085B004AF43781344C47D44B14FF4807452
:100740009C4207D209200437BD46BDE8F0834FF430
:10075000C074F5E7EFF3108E72B60024032C0DDCA5
:100760006C25414E05FB046595F844500DB10134EC
:10077000F4E76C263C4D06FB045400E00024BEF177
:10078000000F00D162B6002C6CD015460E46014613
:1007900001222046FFF7D4FD08B90420D3E72A46FA
:1007A0003146A06E14F06CF8304B1B6813F0040F48
:1007B00003D02F4B1B68032B10DC2C4B1B6813F052
:1007C000040F03D02A4B1B68032B13DC2046FFF7D2
:1007D00009FB2046FFF752FB0020B4E7254BD3F876
:1007E0000435254A009240F2EB322449042005F0FA
:1007F00017F8E2E76D46B4F846C04FEA4C030833F9
:1008000023F00703ADEB030D0DF11008C6460023DE
:1008100012E0A26ED25C59004FEA1219184806681D
:1008200016F809600EF81360013102F00F0200683B
:10083000825C0EF8012001336345EAD3002308F8F7
:100840001C300C4BD3F80435CDF808800D4A0192CA
:100850000D4A00924FF47C720849042004F0E0FF36
:10086000AD46B3E704206EE7D81C0020501A0020E4
:100870004C1A002000B00040B84B0300384B030076
:10088000541A0020DC4B0300E84B030070B504460B
:100890000D461646808A02F07BFB012801D010200D
:1008A00070BD237B0BB9102070BD022B0BD094F9C7
:1008B0001630002B12DB237853B9324629462046E6
:1008C000FFF7ACFA70BD2369002BF0D1102070BD8A
:1008D000324629462046FFF729FF70BD072070BD2C
:1008E00010B582B00446037823B97846144B1B68D0
:1008F0001BB3984701238DF80030E36903F001032F
:100900008DF80130A38AADF80230A188A069FEF706
:10091000CFFF01900B4A1368591C116003F00702C6
:10092000094B03EBC20302AA12E9030083E80300A8
:100930002046FFF727FB02B010BD00DEDAE700BF5C
:1009400044310020BC1C00207C1C002008B5064956
:10095000064800F04DF830B17846054B1B680BB1E6
:10096000984708BD00DE08BD41470300A9460300C3
:100970004431002010B5FFF7E9FF4FF4D872002191
:10098000114813F0A7FF06F0D9FA00240F4B1C60A2
:100990000F4B104A1A60104A5A604CF250329A605B
:1009A0000E49D9601A6104221A759C7508225A757D
:1009B0000B4803F0B7FD0B4B18600B4B1C600B484A
:1009C00006F016FC10BD00BFD81C0020BC1C002087
:1009D000C01C002080969800F049020020A107006A
:1009E000410C0200741C0020641C002079FB0100F3
:1009F00008B50346B0FA80F040090A46B1FA81F121
:100A00004909884201D00E2008BD4BB1EFF3108098
:100A100072B607490B60074B1A6038B962B608BD59
:100A2000002AF3D1FFF792FF002008BD002008BD87
:100A3000701C0020781C002098B110B58CB00446C2
:100A4000C36883B1836983B1436983B1014601A857
:100A5000FEF7BAFF228AE16801A8FFF717FF0CB082
:100A600010BD0E2070470E20F9E70E20F7E70E208C
:100A7000F5E7E8B110B58CB004464068D0B1A06984
:100A8000D8B1227C022A1AD00AB9102013E094F9B6
:100A90000020002A01DA07200DE00A46214601A8BD
:100AA000FEF7DAFFA268616801A8FFF7EFFE02E037
:100AB0000E2070470E200CB010BD0E20FBE710205A
:100AC000F9E7000010B58EB0037B012B03D00024A2
:100AD00020460EB010BD00228388C3F386148DF823
:100AE00008409B008DF809300B0E8DF80A300B0C76
:100AF0008DF80B300B0A8DF80C308DF80D10062395
:100B0000089301238DF82830838AADF82A300B92A0
:100B10008DF8182002AB0793036A0C938DF82420FC
:100B2000C389ADF82630837D002B2ED18DF834207B
:100B3000184906A8FFF79DFF04460028C8D10723DF
:100B40008DF8103000238DF8113006238DF8123007
:100B500002AB059304A8FEF70BFE0028B8D00E4B9D
:100B60001B6813F0200FB3D00C4B1B68012BAFDDBB
:100B70000B4BD3F8043501900A4A009240F23F2211
:100B80000949022004F04CFEA2E7084B5B7D8DF87A
:100B90003430CDE75EE6655E501A00204C1A002026
:100BA00000B00040444B0300384B0300C01C002041
:100BB00038B500240CE000DE6C231F4A03FB04233D
:100BC000DB795A1C01239340013B9D422BD0013419
:100BD000032C2FD86C23184A03FB042393F84430CA
:100BE000022BF4D16C2303FB042393F86430022B13
:100BF000EDD16C2000FB0420816CFFF763FF00281F
:100C0000E5D10D4A6C2303FB04F3D11881F864008D
:100C10008D6CD35C002BCFD17846084B1B68002B22
:100C2000C9D09847C8E76C20034B00FB0430FFF79E
:100C300057FECCE738BD00BFD81C0020443100204F
:100C400008B5FFF743F9FFF7B3FF012008BD000027
:100C5000F0B583B007460D46CC790134CB7DF3B1B6
:100C6000082204FB02F4E3B14FF48073A3421BD2C9
:100C7000214B1B6813F0040F37D0204B1B68002B4F
:100C800037DD1F4BD3F8043501941E4A00924FF410
:100C900013721D49012004F0C3FD002626E00C223A
:100CA000DFE74FF4C073E1E7E96901F00101A88AC9
:100CB00006F0F2F8064680B9E969002201F0010168
:100CC000A88AFEF729FF8EB900213846FFF7FAFE01
:100CD00002210020FEF73CFF08E0234602222946BD
:100CE0003846FFF72DFB0646EDE70026304603B0F9
:100CF000F0BD0026FAE700BF501A00204C1A002071
:100D000000B00040744B0300384B030038B5054673
:100D10008188808AFEF72EFE044610B190F8443098
:100D20000BB1204638BD2946FFF792FF0028F8D1C5
:100D30000024F6E72DE9F04383B081460F461446C0
:100D40009846137823B978466D4B1B6853B1984782
:100D5000E56905F00105A68AA188A069FEF7A8FD4E
:100D6000002302E000DEF3E70133072B1DD8654ABC
:100D70001268934216D2644A02EBC3025268904250
:100D8000F2D1614A02EBC30252889642ECD15E4A2C
:100D900002EBC30252789542E6D15B4A12F8333037
:100DA000012204E000231A4601E000231A46B2B1F2
:100DB00073B1237823B97846514B1B6833B19847F8
:100DC000E1794B1C01219940013902E000DEF7E78F
:100DD00000212046FFF776FE03B0BDE8F0832046F1
:100DE000FFF794FF054668B3A26983699A42F3D37B
:100DF000E269C3699A42EFD1444B1B6813F0040FB8
:100E000003D0434B1B68032B20DC2846FFF77CF8FC
:100E10002B7B012B28D0AA6CA17901238B401A428D
:100E2000DAD11343AB64A279EB799A4224D0E37D03
:100E3000002B5ED00823BB4227D004212846FFF7B1
:100E400009F9C9E70221FEF783FEC5E7314BD3F864
:100E50000435A2790192304A009240F2B1222F4922
:100E6000042004F0DDFCD0E795F86430002BD2D1EB
:100E70002846FFF765F8CEE79BB2E27D002A36D020
:100E8000082202FB0373A5F84630A86EA679E37D1D
:100E90008BB308233A46494606FB030013F0F0FCE7
:100EA000AC6C2B7823B97846154B1B682BB398474D
:100EB000EB795A1C01239340013B9C428CD1434661
:100EC0002A46B5F84610A86EFFF726FC022385F8DF
:100ED0006430A96C2846FFF7F5FD00287FF47CAF4D
:100EE000002385F864302846FFF7FAFC74E70C22EB
:100EF000C7E70C239FE70C23CCE700DED8E700BF51
:100F000044310020BC1C00207C1C0020501A002012
:100F10004C1A002000B00040044C0300384B030082
:100F20002DE9F04192B0002800F090800746002A99
:100F300000F08E80984614460E46002310931193BD
:100F400010A950880BF0F4FD18BB03238DF80C306A
:100F500004238DF80D308DF80E60049703A8FEF77A
:100F600007FCA0B13D4B1B6813F0200F0FD03C4B8A
:100F70001B68012B0BDD3B4BD3F8043501903A4A3B
:100F8000009240F2D6523949022004F049FC002573
:100F90005FE0226902F00102E168208905F098FF14
:100FA00018B303238DF80C3005238DF80D308DF820
:100FB0000E60049703A8FEF7DBFBA0B1274B1B686C
:100FC00013F0200F0FD0264B1B68012B0BDD254B98
:100FD000D3F804350190244A009240F2E1522349AB
:100FE000022004F01DFC002533E0226902F001021A
:100FF000E168208905F016FF0546C0B905AA21461B
:101000003846FEF7D3FD08AB12AA12E9030083E8C5
:10101000030003F03BFA9DF8143083B1434605AA60
:10102000311F381DFFF786FE03F056FA11E02169E3
:10103000002201F001012089FEF76EFD09E0434620
:1010400005AA711E781CFFF767FBEDE70E2500E08F
:101050000E25284612B0BDE8F08100BF501A0020CE
:101060004C1A002000B00040444B0300384B0300F2
:1010700010B50C4691F84430022B04D07846094B49
:101080001B6863B19847022384F86430A16C204642
:10109000FFF718FD10B9002384F8643010BD00DE9E
:1010A000F1E700BF44310020002969D0A0F5967017
:1010B000072867D8DFE800F004101E2B3947515B82
:1010C0004A68314B134431498B4201D9072070479C
:1010D0002F4B1A60002070474A68A2F51233A3F51F
:1010E000F8732C498B4201D907207047284B5A606E
:1010F000002070474A68A2F54343503B26498B4283
:1011000001D907207047224B9A60002070474A6837
:10111000A2F54333A3F5A07320498B4201D90720E0
:1011200070471B4BDA60002070474A68A2F54333D2
:10113000A3F5A07319498B4201D907207047144BBE
:101140001A61002070474B689A1EFD2A01D90720BA
:1011500070470F4A1375002070474B685A1E7E2A4D
:1011600001D9072070470A4A5375002070474B6821
:10117000012B01D907207047054A9375002070475D
:101180000E20704705207047806967FF80778E06C4
:10119000C01C0020904C960030D3970040899500E9
:1011A000002934D000220A604A60A0F59670072812
:1011B0002FD8DFE800F004090E13181D2227164A65
:1011C00012684A6000207047134A52684A60002043
:1011D0007047114A92684A60002070470E4AD268F0
:1011E0004A60002070470C4A12694A60002070472C
:1011F000094A127D4A6000207047074A527D4A60C2
:1012000000207047044A927D4A60002070470E20FB
:1012100070470520704700BFC01C0020F8B518B308
:101220000546164B1F6817B104273846F8BD0E4611
:101230003C46B4420ED205EBC4035B68B3B115F86B
:10124000340010F0800F13D1A0B1FEF733FC98B931
:101250000134EEE70A4B43F8375003EBC7035E60F7
:101260007B1C064A1360E0E70E27DEE70E27DCE76B
:101270000B27DAE70F27D8E70F27D6E7641C0020F3
:10128000681C002038B5054618B10A4B1C686CB9BB
:1012900038BD7846084B1B680BB19847F5E700DE70
:1012A000F3E754F8043C284698472468002CF8D10A
:1012B00038BD00BF881E00204431002010B5044610
:1012C00020B1211D054804F0B9F910BD7846044B42
:1012D0001B680BB19847F4E700DEF2E7881E002098
:1012E0004431002010B5044620B1211D054804F00A
:1012F000E3F910BD7846044B1B680BB19847F4E73F
:1013000000DEF2E7881E00204431002008B5038883
:101310001A4492B202808A4208D00388994209D8BE
:101320007846054B1B6823B1984708BD002303800E
:10133000F3E700DE08BD00BF4431002038B50446A5
:101340000D468368828813448B4204D078460F4B45
:101350001B68B3B198472A880432204692B230F80D
:10136000041BFFF7D3FF2388A2889B1A9BB2042B90
:1013700004D87846054B1B682BB198470023AB7007
:1013800038BD00DEE7E700DEF8E700BF44310020AB
:101390000B8819440431826803881344994201D0B0
:1013A000084670471146FBE738B504460D46FFF77F
:1013B000EFFFEFF3108172B6A2686388134498427E
:1013C00004D001B962B60423AB7038BDAA1A62809A
:1013D00001B962B60023AB7038BD836819448878C0
:1013E00070470088043880B27047000010B50B8841
:1013F000934210D99B1A9BB244884CB90488E31AD3
:1014000043800A8042888368134400229A7010BD8A
:10141000E31A4380F5E7934206D07846034B1B68F6
:101420000BB1984710BD00DE10BD00BF4431002055
:1014300038B5044643888268D518D1520123AB7071
:101440000A1D92B230F8021BFFF760FF6288A38882
:101450009A4203D0A368134400229A70284638BDEC
:1014600070B51646091A8DB214880434A4B2A54288
:1014700004D27846064B1B683BB198472C1BA4B29C
:10148000042C01D8043D358070BD00DEF6E700BFB6
:101490004431002083888B4201D20420704710B46D
:1014A000428881688C1803889B1A9BB2043B8B523C
:1014B0000423A3700023438018465DF8044B704753
:1014C00038B504460D468188FFF787FF08B1042030
:1014D00038BD238862889B1AAB4201DB002038BDEF
:1014E00029462046FFF7D6FF38BD08B50388428855
:1014F0009B1A8B4201DB002008BDFFF7CBFF08BD24
:10150000838842889B1A8B4201DA042070470020AE
:10151000704770B504460E460988043189B2428886
:1015200083889A420FD09A4211D8FFF7E9FF054607
:101530003DB96088A188884200D321883246FFF7F0
:101540008FFF284670BDFFF7BBFF0546F0E7FFF7AA
:10155000CCFF0546ECE710B504468088A16801443D
:1015600005E02046FFF7EAFEA088A16801448B78D9
:10157000042BF6D0084610BD70B5064615460C463D
:1015800000294FD0002E55D0B4F1005F08D94FF09C
:101590008053D3F80C3103F50023B4EB832F11D320
:1015A000B4F5000F08D94FF08053D3F80C3103F590
:1015B0000053B4EB832F05D37846254B1B68002BD3
:1015C00040D098476B1E2344B3F1005F08D94FF019
:1015D0008052D2F80C2102F50022B3EB822F11D3F6
:1015E000B3F5000F08D94FF08052D2F80C2102F564
:1015F0000052B3EB822F05D37846154B1B68002BA6
:1016000022D09847042D04D87846114B1B68EBB1C3
:101610009847358000237380B380B460043D2580F3
:10162000A37070BD78460A4B1B680BB19847A9E7B9
:1016300000DEA7E77846064B1B680BB19847A3E787
:1016400000DEA1E700DEBDE700DEDBE700DEE0E76D
:101650004431002070B504468088A1680144EFF34E
:10166000108672B68D78032D0AD12046FFF790FEC2
:10167000014605E004238B702046FFF789FE0146F2
:101680008B78012B05D0A368CB1A9BB262889A4253
:10169000F0D1032D02D02046FFF75DFF06B962B6F8
:1016A00070BD0000F0B583B00D46ADF806200646CB
:1016B00038B175B1BDF806409CB90924204603B085
:1016C000F0BD7846174B1B680BB19847F1E700DE79
:1016D000EFE77846134B1B680BB19847EAE700DE4B
:1016E000E8E73046FFF77DFE844201D90924E5E7AB
:1016F000E31C9BB223F0030302A921F8023DEFF3A0
:10170000108772B63046FFF704FF044618B1002F69
:10171000D4D162B6D2E7BDF806103046FFF788FE96
:101720002860F4E74431002070B582B00C46ADF873
:101730000620054600283CD0002C42D0A378012B7F
:1017400005D078462E4B1B68002B42D09847228844
:10175000BDF806309A4205D27846294B1B68002B0B
:1017600039D09847BDF806302BB97846244B1B6812
:10177000002B32D09847BDF8063003339BB223F0DC
:1017800003039BB2ADF80630228893420DD0214668
:101790002846FFF7FDFDEFF3108672B6AA686B8846
:1017A000134498421BD006B962B60223A37002B05C
:1017B00070BD7846124B1B680BB19847BCE700DE42
:1017C000BAE778460E4B1B680BB19847B6E700DEC8
:1017D000B4E700DEBBE700DEC4E700DECBE7A01A1B
:1017E00080B2A988814200D829880DF10602FFF74E
:1017F00037FEBDF8062021462846FFF7F7FDD2E761
:101800004431002038B50C46054650B18CB128460D
:10181000FFF7A1FE8378022B13D0032B16D00520EF
:1018200038BD78460E4B1B680BB19847EEE700DEDB
:10183000ECE778460A4B1B680BB19847E7E700DEF8
:10184000E5E7032383702060002038BD7846044B11
:101850001B6813B19847002038BD00DE002038BD5A
:101860004431002010B5044638B12046FFF773FE1E
:101870008378022B09D0002010BD7846044B1B68EA
:101880000BB19847F1E700DEEFE7012010BD00BF84
:101890004431002038B50546D0B12846FFF75BFE3D
:1018A00004468078022814BF0020012021468B784E
:1018B000033BDBB2012B0AD82846FFF769FD01463E
:1018C0008078022814BF002001208C42EFD138BD5F
:1018D0007846034B1B680BB19847DEE700DEDCE778
:1018E0004431002038B50C46054650B18CB1A37880
:1018F000012B16D0032B19D121462846FFF71EFDD8
:1019000038BD78460D4B1B680BB19847EEE700DEFB
:10191000ECE77846094B1B680BB19847E7E700DE18
:10192000E5E721462846FFF73FFD38BD7846034BE3
:101930001B680BB1984738BD00DE38BD443100202C
:1019400008B50023092B09D8084A52F823208242FF
:1019500001D00133F6E7064A536008BD7846054BCF
:101960001B680BB1984708BD00DE08BD884C03001A
:101970008C1E00204431002008B5064B98680022D8
:101980001A605A609A60DA601A615A619A6104F0CA
:10199000F7FF08BD8C1E002010B5294BDB688BB10A
:1019A000274B1B7E23B17846264B1B6893B1984783
:1019B000234B5B68092B1DD97846224B1B685BB112
:1019C000984717E078461F4B1B680BB19847E7E72D
:1019D00000DEE5E700DEEBE700DE0BE000DE02E024
:1019E0000022174B5A60012C01D0032C26D1144B36
:1019F0001B7E1BBB124B5A68134B53F8223098477F
:101A00000446022810D00328EAD00128EBD10C4A62
:101A1000536801335360092BE5D97846094B1B689D
:101A2000002BDBD09847DEE7054B1B7E1BB1022263
:101A3000034B1A70D7E7FFF79FFFD4E710BD00BF35
:101A40008C1E002044310020884C0300104B1B6882
:101A50001B685A1E12F1030F18D8C3F30B020AB108
:101A60000020704710B50B4AD360002313765376DD
:101A70000124147093600848FFF762FF074920466D
:101A800001F0A8F9FFF788FF204610BD002070473D
:101A9000AC1E00208C1E0020DD1A0200A11A0200DC
:101AA00008B50B78032B06D00B4B1B78012B06D007
:101AB000022B0BD008BD0022074B1A76F4E7064B29
:101AC0001B7E002BF6D1FFF767FF08BD0B78032BB9
:101AD000F0D1FFF751FFEDE78C1E002000B585B077
:101AE0000A4BDB6802228DF8002001934FF48053EB
:101AF0000293074A6946012001F082F918B10020DB
:101B000005B05DF804FB0120FAE700BF8C1E002041
:101B1000A81E002000B585B00A4B1B6802228DF874
:101B2000002001934FF480530293074A6946012035
:101B300001F066F918B1002005B05DF804FB012042
:101B4000FAE700BFAC1E0020A81E0020154BDA6883
:101B5000137951795B1A03F57F2303F6FF731B0397
:101B600005D002F580520F4BDA600320704700B5B4
:101B700085B00D4B1B6801208DF8000001930B4BC5
:101B80000393042302930A4A694601F039F930B9F4
:101B90000122044B1A76022005B05DF804FB0020F8
:101BA000FAE700BF8C1E0020AC1E0020B01E0020F3
:101BB000A81E002000B585B00C4BDA680C4B1B68E2
:101BC000043301208DF800000192039340F6FC736A
:101BD0000293084A694601F013F928B90120034B22
:101BE000187605B05DF804FB0020FAE78C1E002093
:101BF000AC1E0020A81E002000B585B00A4B1B6853
:101C000001208DF800000193084B039304230293F5
:101C1000074A694601F0F4F818B1002005B05DF8F4
:101C200004FB0120FAE700BFAC1E0020981E002034
:101C3000A81E002010B584B0114BDA681478114B3F
:101C40001B68043301208DF8000001930392029475
:101C50000D4A694601F0D4F880B90A4B1B6804F0BC
:101C6000FC041C440434064B5C61D9680A780A44BD
:101C70001A6100225A76012004B010BD0020FBE753
:101C80008C1E0020AC1E0020A81E002000B585B0D0
:101C9000174BDB6818784FF6FF7203F58051184434
:101CA00005F056FAF0B10246114BD9680B780B4497
:101CB000984219D00E4B5B7E93B10E4B01208DF8EC
:101CC000000001920393042302930B4A694601F03A
:101CD00097F858B90120064B187605B05DF804FB5B
:101CE000064BEBE70120F8E70120F6E70020F4E7D8
:101CF0008C1E00203C4E0300A81E0020384E03001E
:101D000008B50F4BDB681878002203F580511844A2
:101D100005F01EFA08B1012008BD094BDA681379F5
:101D200051795B1A03F57F2303F6FF731B0305D07C
:101D300002F58052024BDA60032008BD022008BD84
:101D40008C1E002070B584B04F4BDD686B792A790A
:101D5000511E8B4200F0938005F580510C780C44A5
:101D60004A490968081D0E790644D31A03F57F23F2
:101D700003F6FF731B0303F580531D446388013B87
:101D80009BB247F6FE6293421AD858E0002456E010
:101D900000DE238804EB830323F47F6222F00F022A
:101DA000934217D06288B2F5FE4F13D09D42EDD911
:101DB0005A88013A92B21C4647F6FE618A423ED9E1
:101DC0002388002BE5D17846314B1B68002BDFD0F0
:101DD0009847DEE724F47F6323F00F0303F5805375
:101DE0001A781344E2E700DE238804EB830323F42C
:101DF0007F6222F00F02934217D06288B2F5FE4F45
:101E000013D09D421AD95A88013A92B21C4647F61D
:101E1000FE618A4213D92388002BE5D178461C4BFA
:101E20001B68002BDFD09847DEE724F47F6323F0A4
:101E30000F0303F580531A781344E2E70024DCB162
:101E4000124B1968628801F58051304605F080F91F
:101E50000646B0B101200C4B18768DF800000194B5
:101E60000C4B0393042302930B4A694600F0C8FF0E
:101E70000028D0D0002000E0012004B070BD012077
:101E8000FBE70120F9E700BF8C1E0020AC1E0020FC
:101E900044310020344E0300A81E0020F0B587B066
:101EA000714B1B6923B1704B5B694BB100274CE050
:101EB00078466E4B1B680BB19847F4E700DEF2E7FB
:101EC00078466A4B1B680BB19847EFE700DEEDE7F9
:101ED00000DE238804EB830323F47F6222F00F02E9
:101EE000934217D06288B2F5FE4F13D09D421AD9A3
:101EF0005A88013A92B21C4647F6FE618A4213D9CB
:101F00002388002BE5D17846584B1B68002BDFD087
:101F10009847DEE724F47F6424F00F0404F580542E
:101F200023782344E2E70024002C35D100230093DA
:101F3000019B002B6CD10127002C00F08C80628863
:101F400047F6FF739A4200F08680474B5B7E002B7A
:101F500040F08780002F40F08280434B5A6922F482
:101F60007F6626F00F06B61A06F580561C69DD68F6
:101F70002B796A799B1A03F57F2303F6FF731B0302
:101F800003F580531D44002301936388013B9BB2FA
:101F900047F6FE629342B3D800940EE000DE238839
:101FA00004EB830323F47F6222F00F02934226D0D6
:101FB0006288B2F5FE4F22D01C46A542B8D92388CC
:101FC000019A02EB83029642B2D9009B634023F44C
:101FD0007F6323F00F03002BAAD16388013B9BB2E0
:101FE00047F6FE618B42A3D801922388002BD6D1FD
:101FF00078461E4B1B68002BD0D09847CFE724F4BF
:102000007F6424F00F0404F5805423782344D3E73D
:10201000154A526901208DF808000392009A059232
:102020000493134A02A900F0EBFE90B90E49019BFC
:1020300023F003024B6913444B6114B10A4B1C613A
:102040007AE77846094B1B680BB19847F6E700DE44
:10205000F4E7002006E00122034B5A7675E70120E1
:1020600000E0012007B0F0BD8C1E002044310020AC
:10207000A81E002008B54FF010235B69B3F1FF3FA5
:1020800003D04FF010235B6963B94FF08052516960
:10209000136903FB01F3A3F58053054A1360FFF7AF
:1020A000D5FC08BD4FF010235B69A3F58053F2E720
:1020B000AC1E0020024B1878003018BF012070477A
:1020C0008C1E002010B584B00446244B1B782BB125
:1020D0007846234B1B68002B3BD098472378032B73
:1020E00005D078461E4B1B68002B34D098471B4BFD
:1020F0009C60E268DA6000245C601C760120187045
:102100005C76184900F066FEFFF746FC0A238DF85E
:1021100008308DF809408DF80A40039402A8FDF7B5
:1021200027FBA0B1104B1B6813F0200F0FD00F4BF3
:102130001B68012B0BDD0E4BD3F8043501900D4AC3
:1021400000924FF420720C49022003F069FB04B0A6
:1021500010BD00DEC2E700DEC9E700BF8C1E002014
:1021600044310020A11A0200501A00204C1A00200D
:1021700000B00040444B0300704C0300014B186852
:10218000704700BFAC1E002010B50446B8B16368AC
:102190001BB123680BB1A36823B978460E4B1B68AB
:1021A000ABB19847A3685A1E134204D078460A4B35
:1021B0001B6873B198470023E360236110BD784624
:1021C000054B1B680BB19847E1E700DEDFE700DE57
:1021D000E8E700DEEFE700BF44310020F8B510B3B8
:1021E000044611B3826812B909252846F8BDEFF3F9
:1021F000108572B6026980680244E668B2420ED069
:1022000027686368013830401A4600FB037012F0FB
:1022100037FBE3680133E3605DB962B6E5E735B9E2
:1022200062B60425E1E70E25DFE70E25DDE704258C
:10223000DBE70025D9E770B508B30446826812B918
:102240000925284670BDEFF3108572B60669C2688D
:10225000964210D0084621686268A368013B1E4080
:1022600006FB021108B112F00BFB23690133236155
:102270004DB962B6E5E725B962B60525E1E70E2559
:10228000DFE70525DDE70025DBE70000C0F30B03F2
:102290000BB11020704709B90920704701F6FF7192
:1022A000090B0222104BC3F804250F4BD3F800345E
:1022B000002BFAD000220AE00B4BC3F808050A4BAA
:1022C000D3F80034002BFAD000F5805001328A4256
:1022D000F2D30022044BC3F80425034BD3F8003497
:1022E000002BFAD00020704700E0014010F0030FEF
:1022F00002D010231846704711F0030F01D01023AD
:10230000F8E70AB90923F5E712F0030F01D0092312
:10231000F0E710B493080124124AC2F80445114AA8
:10232000D2F80024002AFAD002E004300431134627
:102330005A1E53B10B68B3F1FF3FF6D00360094B4F
:10234000D3F80034002BFAD0EFE70021054AC2F899
:102350000415044AD2F80024002AFAD018465DF881
:10236000044B704700E0014001800023438042603D
:102370007047000038B5134C4FF480552A460021B1
:10238000204612F0A7FA104B1C600AE00022282118
:102390002046FFF7E9FF2388083323446360303D7C
:1023A0001C46502DF2D8083D04D17846074B1B68D7
:1023B00033B198470022A9B22046FFF7D5FF38BDB8
:1023C00000DEF7E7B41E0020B42E002044310020C8
:1023D00010B5044608B1A04710BD7846034B1B68F2
:1023E0000BB19847F7E700DEF5E700BF4431002066
:1023F00008B508220221084804F000F938B1074A5C
:1024000091684160127B027204F03CF908BD0448F7
:1024100004F084FA08BD00BFC02E0020FC2E00206E
:10242000201A00200E4B1B78CBB910B50D4B5C6801
:1024300004F50054B4F1807F00D910BD04220121BD
:10244000094804F0DBF830B1446004F01BF90122C4
:10245000034B1A70F1E7054804F060FA10BD7047AD
:10246000102F0020FC2E0020C02E0020101A00206B
:1024700008B501210B4804F037F920B902210948B9
:1024800004F032F928B1084804F048FAFFF7CAFF0F
:1024900008BD064B00221A605A609A60DA601A6121
:1024A000F4E700BFC02E0020001A0020FC2E002000
:1024B00000B58DB003908DF808100CA8022300F829
:1024C0002C3DFEF7DFFE0DB05DF804FB10B58CB0BF
:1024D0000C469AB94B88012B28D1164B1B7823B98F
:1024E0007846154B1B683BB198476268134B5A609E
:1024F0000022104B1A7019E000DEF6E7032A04D020
:1025000078460D4B1B689BB198472C22002101A8EF
:1025100012F0E0F90E238DF804300394084BDA68CA
:1025200005921B69069301A8FEF7ACFE0CB010BD26
:1025300000DEEAE7102F002044310020FC2E0020AE
:10254000C02E002038B504F00BFA28B902F09CF830
:102550000028F8D020BFF6E701F098FF00221146CE
:102560001A4803F095FF00252C4605E0051D02469C
:102570000021164803F08CFF30B14388012BF5D0C1
:10258000022BF4D1041DF2E7A4B19DB12268104BD7
:102590009A6022791A73AC4201D9237993B12A68DF
:1025A0000B4B1A600A4B1A685A60FFF73BFF01F0A9
:1025B00093FF38BD064B00221A609A601A73FFF72A
:1025C00017FFEFE70022024B1A60EBE7C02E002056
:1025D000FC2E002008B504F00BFAA0F5805008BDD1
:1025E00000B587B0002300930193029303930493F3
:1025F0000593FFF7EFFF009001230193064B039330
:102600006946064804F03CF910B907B05DF804FBD0
:10261000034804F083F9F8E7CD240200C02E00201F
:10262000301A002010B50C4B00241C605C609C60CC
:10263000DC601C6101F064FA084B5860084A9A603B
:10264000084ADA601C615C61074A1470184601F0A0
:1026500033F9FFF7C5FF10BDFC2E0020E42E00204B
:102660007D27020000879303112F002038B501F069
:102670000DFF174B1B7B23B1082401F02DFF2046D3
:1026800038BD134B9B7B0BB10824F6E7104B1A8A1D
:1026900041F282639A4204D80E4B1B782BB101237E
:1026A00000E001231BB90824E7E70023FAE7084DFF
:1026B00001232B7300242C82AB680133AB60FFF73E
:1026C00097FEA868297B0138FFF7F2FED5E700BF27
:1026D000FC2E0020112F002010B501F0D7FE244B56
:1026E0005B7B9BB1224B9B7B03BB214B1A8A41F244
:1026F00082639A4204D81F4B1B782BB1012300E060
:102700000123ABB1012302E00023FAE700231C46BA
:1027100043B3174B00225A731B7B5BB1012B14D0C0
:102720007846154B1B680BB398471BE00023EEE778
:102730000023ECE7FFF79AFFA0B178460E4B1B6829
:102740000BB198470EE000DE0CE0094B0021196048
:102750005960197319829868FFF7AAFEFFF748FEBF
:10276000FFF760FE01F0B8FE204610BD00DEF9E77D
:10277000FC2E0020112F00204431002010B5264BE4
:102780001B7B4BB1012B27D07846244B1B68002BB9
:102790003DD0984701240DE01F4B1A8A41F2826315
:1027A0009A4204D81E4B1B7883B1012300E0012319
:1027B00073B901241CB1184A138A01331382164BD2
:1027C0005B8A13B1013B144A538210BD0023EFE72B
:1027D000FFF782FF0024EDE70F4B1A8A41F2826374
:1027E0009A4204D80E4B1B787BB1012300E00123F1
:1027F0001C467BB142F2B0139A4203D90122064B28
:102800005A730024FFF768FFD4E70023F0E700DEE7
:102810000124CFE70124CDE7FC2E00204431002025
:10282000112F002010B5184B1A685B689A4225D208
:102830000446154B1B7B012B15D0144B934214D926
:10284000002028B9104B1A685B68403B9A4212D2AC
:10285000EFF3108072B60C4A1368591C11602360A4
:1028600080B962B610BD0A4BE8E70122064B5A73E5
:10287000FFF732FFE5E7FFF7D5FDE9E7FFF7D2FD08
:102880000F2010BD002010BDFC2E0020FFFF7F0098
:1028900000E0FF0008B568B90E4B1B6823B9784605
:1028A0000D4B1B6873B198470A4A1368013B1360CC
:1028B00053B108BD0122094B9A73064A13680133CC
:1028C000136008BD00DEEFE70022044B9A73FFF7A8
:1028D00003FFEEE7BC2E002044310020FC2E002038
:1028E00000B58DB0ADF808008DF80A100CA80323D0
:1028F00000F82C3DFEF7C6FC0DB05DF804FB0000AF
:1029000038B505460C4601F0C1FD254B1B7B002B5D
:1029100034D1234B5B8A2BBB1CB9214B9B68AB4248
:1029200005D3FCB11E4B9B6801339D421AD91C4B49
:102930009B682A339D4223D8194B9B7B03BB184CC1
:10294000A56023606360238242F60652628263734D
:102950002373FFF74DFDFFF765FD217BA068FFF7AF
:10296000A7FD0DE064B10E4B9B6801339D4207D17A
:1029700001220B4B5A73FFF7AFFE01E0012B02D08F
:1029800001F0AAFD38BD002CFAD1054B9B689D4291
:10299000F6D10122024B5A73FFF79EFEF0E700BF0B
:1029A000FC2E0020014B9868704700BFFC2E0020D1
:1029B000054B1B7B012B02D0034B98687047024BE1
:1029C00098680138704700BFFC2E0020044B9B68BC
:1029D000584010F0010F00D0013B1846704700BF6F
:1029E000FC2E0020014B187B704700BFFC2E0020FE
:1029F00008B5074B1B780BB1082008BD0122044B1A
:102A00001A70044B98601973FFF7F2FC002008BDA0
:102A1000B82E0020FC2E002008B50278012A09D02B
:102A2000022A15D07846114B1B68D3B198474FF452
:102A3000FA7308E083685B1A98084FF4A97303FBE4
:102A400000F303F5FA730A48984228BF184608BDF8
:102A500083685B1A180B074B03FB00F303F5FA734B
:102A6000F1E700DE4FF4FA73EDE700BF44310020D8
:102A7000A0860100645E010008B50378012B08D030
:102A8000022B0CD07846074B1B682BB198470020CF
:102A900008BD4FF4A97008BD00DE002008BD024843
:102AA00008BD00BF44310020645E01002DE9F04103
:102AB000002722E02449B82303FB04F3CA5A013259
:102AC000CA520221404602F08DFC013602214046E6
:102AD00002F04EFC70B1B8231B4A03FB04239D682F
:102AE000002DE7D0B82303FB04F3D25A0146384641
:102AF000A847DFE796B90137FFB2022F20D83C463E
:102B0000B82303FB07F308330F4D1D4405F10408F8
:102B10000221404602F02CFC0026DBE70021404663
:102B200002F0ECFC0828E6D1B822074B02FB043483
:102B3000A368002BDFD00022044938469847DAE723
:102B40000120BDE8F08100BF1C2F0020B04C030025
:102B500008B5082383731023437300F11C034361FA
:102B60000323037300F1180303610C3002F084FCAB
:102B700008BD000010B5044601210C3002F0F8FB3E
:102B8000D8B10E4AC4F89C200022C4F8A020616885
:102B9000FFF742FFC4F8A400C4F8A840012384F85A
:102BA000B43004F19C000BF0EBFE30B17846044BDE
:102BB0001B680BB1984710BD00DE10BDF52C02005C
:102BC00044310020F8B506460C46174615680378D0
:102BD000012B04D07846164B1B681BB39847154948
:102BE000A1FB0431C9098900B468641BA14200D863
:102BF0000C4624B978460E4B1B68ABB198477068F9
:102C000025F00305F168224629442844FFF76EFBAE
:102C100020B17846064B1B6843B198473B681C447B
:102C20003C60F8BD00DEDAE700DEE8E700DEF5E74D
:102C300044310020EB5DF260F8B507460C461646BD
:102C400015680378022B04D07846154B1B680BB32C
:102C50009847144BA3FB04231B0C1B03BC68641B89
:102C6000A34200D81C4624B978460D4B1B689BB183
:102C70009847786825F0030521462844FFF706FBAE
:102C800020B17846064B1B6843B1984733681C4413
:102C90003460F8BD00DEDCE700DEEAE700DEF5E7E1
:102CA00044310020B77609BB38B505460C461146BD
:102CB0002378012B08D0022B11D078460C4B1B68CF
:102CC0009BB19847002004E0021D2046FFF77AFFE1
:102CD000A0686B68984214BF0020012038BD021D17
:102CE0002046FFF7A9FFA068F3E700DE0020F0E729
:102CF000443100202DE9F8438846D1F8A450264BF2
:102D00001B7863B90646A5F5FA7501F10C09012196
:102D1000484602F02DFB074640B1002428E00BF0A6
:102D20007FFE002388F8B430BDE8F88378461B4B5B
:102D30001B680BB19847F0E700DEEEE70BF070FE82
:102D40000121484602F04EFB0023C8F8043088F801
:102D5000B430134B186801F00FFC4046FFF70AFF30
:102D6000BDE8F8833846FFF787FE204485420CD340
:102D70002A1B39464046FFF797FF0028DED100F0B6
:102D8000BFFE841BEED5341AECE70BF049FE40463B
:102D9000FFF7F0FEBDE8F883182F00204431002033
:102DA000142F002010B5084801F0BCFB074B186039
:102DB000002406E0B820064B00FB0430FFF7C8FEF5
:102DC0000134022CF6D910BDAD2A0200142F0020C8
:102DD0001C2F002038B504460D46022804D9784639
:102DE000054B1B6833B19847B822044B02FB0434EF
:102DF000A56038BD00DEF7E7443100201C2F00201D
:102E00002DE9F84306460C469046022805D9784637
:102E10005C4B1B68002B4CD09847002C4BD0237880
:102E2000012B50D0022B7AD07846564B1B68002BD2
:102E300000F097809847EFF3108772B6B82505FB2E
:102E400006F505F10803504D1D44043500212846C0
:102E500002F08EFA8146002800F08D80002128467D
:102E600002F0C0FA20686168A268E368C9F800004F
:102E7000C9F80410C9F80820C9F80C30B8F1000FDF
:102E800006D0B823404A03FB06235B88A8F800302D
:102E9000B8233D4A03FB06235A8801325A8093F82F
:102EA000B430002B6CD1394B1B78002B5BD0002049
:102EB00062E000DEB1E77846324B1B680BB1984701
:102EC000ADE700DEABE7636813F0030F04D078468C
:102ED0002C4B1B68DBB19847E36813F0030F04D059
:102EE0007846284B1B68A3B19847A36813F0030FDB
:102EF00004D07846234B1B686BB19847A368002B1E
:102F000099D178461F4B1B683BB1984793E700DE89
:102F1000E2E700DEE9E700DEF0E700DE8BE763686A
:102F2000C3F30B0323B17846164B1B689BB198473C
:102F3000A368C3F30B0323B17846124B1B6863B13C
:102F40009847A368002B7FF476AF78460D4B1B683B
:102F50002BB198476FE700DEEAE700DEF1E700DE1D
:102F600069E700DE67E7B820074B00FB0630FFF794
:102F700001FE002000E0042007B962B6BDE8F88336
:102F80000020F9E7443100201C2F0020182F0020DA
:102F900018B1830B024AD05C70470020704700BF15
:102FA000C04C030012DF704700B583B01378A3B1A3
:102FB000042B14D1072110F8013C163B152B31D8F6
:102FC000DFE803F0593030303030303030303030DE
:102FD000303030303030302E0F3A517DEBE7002169
:102FE000E9E7022901D007291CD110F8021C013998
:102FF00002F074F9B0B1264B1B6813F0400F11D0EA
:10300000244B1B68012B0DDD234BD3F804350190B5
:10301000224A009287222249022002F001FC01E0AC
:10302000022902D003B05DF804FB10F8021C01393C
:10303000C9B20AF0CDFFF5E70229F3D110F8021C5E
:103040000139C9B203F0F2FF0028EBD0104B1B6826
:1030500013F0400FE6D00F4B1B68012BE2DD0E4B47
:10306000D3F8043501900F4A00929A220C490220AD
:1030700002F0D6FBD6E701884FF6E4639942D1D13E
:1030800010F8021C03390230FCF75AFBCAE700BFF4
:10309000501A00204C1A002000B00040004D0300E0
:1030A000F44C03002C4D030070B58AB00CF004FA08
:1030B000002834D0064600238DF8103005AC0546B4
:1030C0000FCD0FC42B682360727D052A0DD9337D87
:1030D00003F00F03072B08D0307D04AB063A06F14E
:1030E0001D0100F00F000BF011F8134B1B689BB192
:1030F00004AB0393337DC3F303038DF80430737D76
:10310000062B13D9063B8DF8053006F11D030293FB
:10311000094B1B6801A8984730460CF0A7F90CF042
:10312000E5F980F00100C0B20AB070BD00238DF84F
:1031300005300293ECE700BF4C31002070B582B03F
:10314000334B1B781BB10824204602B070BD002809
:103150005CD042682F4B1A60067B0EB90724F3E758
:103160000F2E03D0072E01D90724EDE70546FCF703
:1031700015FB0DF10700FFF715FF04460028E3D10A
:103180009DF80730012B01D00224DDE7FCF73AFB64
:1031900000F07EFB304601F03BF92B78012B25D067
:1031A000FA2001F04DF80BF0C5FB1B480CF052FA69
:1031B0000BF084F9FFF7F6FD03F0D6F804F05CFE9F
:1031C000284601F0FFFE2846FDF7D4FB04F0A2FBE1
:1031D00042F2107003F0B6FE2846FFF7CBF8FCF77A
:1031E000AFFA38B1062805D00446ADE7E87800F01C
:1031F000D5F8D6E700F0AEFD08480AF069FF0022D6
:10320000074B1A600122024B1A709DE70E249BE7C0
:103210004931002044310020A9300200401A00202A
:103220004C31002010B5104B1B7813B908242046F0
:1032300010BD0E4B1B780BB10824F8E701F026F8FF
:1032400020B178460A4B1B685BB198470BF088FBAE
:1032500004460028EBD10CF0EFF80122034B1A7062
:10326000E5E700DEF2E700BF4931002048310020E9
:103270004431002008B5FDF7DFFB08BD0020704792
:1032800008B500F0A1FF002008BD08B5FEF716F84C
:1032900008BD000010B5044618B100232360636028
:1032A00010BD7846034B1B680BB19847F5E700DE6D
:1032B000F3E700BF4431002038B50C46054668B13D
:1032C000A4B100236360EFF3108372B62A68AAB139
:1032D0006A6854606C6003B962B638BD7846084BC2
:1032E0001B680BB19847EBE700DEE9E77846044B33
:1032F0001B680BB19847E4E700DEE2E72C60E9E7E2
:103300004431002010B5044658B1EFF3108372B673
:10331000206808B142682260226852B103B962B6DF
:1033200010BD7846044B1B680BB19847EDE700DEF3
:10333000EBE76260F2E700BF4431002010B50446BD
:1033400008B1206810BD7846034B1B680BB1984745
:10335000F7E700DEF5E700BF4431002034DF7047B7
:103360003ADF704710B504464FF0FF30FFF7F6FF25
:103370004FF0FF312046FFF7F3FFBFF34F8F0549B2
:10338000CA6802F4E062044B1343CB60BFF34F8F73
:1033900000BFFDE700ED00E00400FA05072814D89F
:1033A000DFE800F0080C1504110F0A0664207047CE
:1033B00014207047FA2070471E2070474FF4FA70AF
:1033C0007047322070474B207047FA207047962094
:1033D000704753B130B4013B9BB2CC5CD55C6C40C0
:1033E000C454002BF7D130BC7047704770B50C4601
:1033F0001546324E002333607360B360F36032468B
:103400003146FCF7E3F996F90030002B02DB00218E
:1034100010230CE0002110231CE0013B9BB2274845
:10342000C25C5200D2B20A43E254C25CD109002B02
:10343000F3D194F90030002B1ADB0021102323E094
:10344000013B9BB21D48C25C5200D2B20A43E25417
:10345000C25CD109002BF3D1102306E0013B9BB2E3
:10346000E25C1749C95C4A40E254002BF6D1E0E720
:103470000021102314E0013B9BB2E25C5200D2B267
:103480000A43EA54E25CD109002BF4D170BD013B40
:103490009BB2E25C5200D2B20A43EA54E25CD10928
:1034A000002BF4D1102306E0013B9BB2EA5C0449F7
:1034B000C95C4A40EA54002BF6D170BD503100205F
:1034C000584D03002DE9F04385B007460C461546DC
:1034D000984602F10F0636111FFA86F9354A364929
:1034E000FFF784FF354B00221A605A609A60DA6059
:1034F00005F00F05B9F1000F11D085B909F1FF30C2
:103500000001102308E0013B9BB22218D25C2A493B
:10351000C95C4A400DF80320002BF4D120E0B1B281
:103520000139ADB22A4604EB0111684611F0A8F941
:1035300080230DF805306B1C03E000220DF80320FA
:1035400001330F2BF9DD102308E0013B9BB21DF87E
:1035500003201849C95C4A400DF80320002BF4D120
:10356000002510E0013B9BB21449CA5C04EB0E003D
:10357000C05C4240CA54002BF4D110490A46384678
:10358000FCF724F90135B3B2013B9D4203DA4FEA5F
:10359000051E1023EFE7094C1023224669462046FA
:1035A000FFF717FF424621463846FCF70FF905B0F2
:1035B000BDE8F083703100206031002050310020E0
:1035C00010B50446436923B178461C4B1B686BB1A8
:1035D00098471B4B1B685BB16068194B1B685B68A5
:1035E000C31A002B04DB164B196812E000DEF0E76B
:1035F000134A136863611460D3680133D360E3B97D
:1036000078460E4B1B680BB1984710BD00DE10BD0D
:1036100019464B691BB15A68121A002AF8DB63611C
:103620004C61074AD3680133D36033B97846034B02
:103630001B680BB1984710BD00DE10BD443100205F
:1036400084310020134B5B681BB310B50BE00023E3
:10365000237005E000DE022323702046FFF7B0FF51
:103660000C4B5B68A3B10B4B5C6862695A6000232A
:1036700063612378DBB2052BE9D02378DBB2012B21
:10368000E9D07846044B1B68002BE3D09847E2E76B
:1036900010BD7047843100204431002070B5244EA5
:1036A00015E06369336000236361214AD368591EC2
:1036B000D16023B978461F4B1B68C3B198471C4A99
:1036C0009368013B936000232370032D11D034686D
:1036D000002C2BD0164B9B68002B27D02578EDB201
:1036E000EB1EDBB2012BDCD904F11406EFE700DEA0
:1036F000E5E7237843B12378DBB2062B04D0784684
:103700000C4B1B6873B19847636923B17846094B2A
:103710001B684BB1984701232370054B5A686261BF
:103720005C60D4E700DEEFE700DEF4E770BD00BFC9
:10373000843100204431002038B5054616E000DE13
:103740002AE09847A368002B37D006232370A3688C
:1037500021692846984700F0D3F90546FFF79EFFF8
:10376000FFF770FF2378DBB2062B2ED0204B1B68AF
:10377000002B3BD01E4B1B685B685B1B642B35D555
:103780001B4B1C682378DBB2022B05D07846194B03
:103790001B68002BD3D098476269154B1A60002232
:1037A0006261DA68511ED960002ACBD17846114B8C
:1037B0001B68002BC5D100DEC4E778460D4B1B68A3
:1037C0000BB19847C1E700DEBFE7E26812B90023FA
:1037D0002370CBE76368134463605B1B642BF9D4ED
:1037E000022323702046FFF7EBFEBFE738BD00BF82
:1037F000843100204431002008B5164B1B68002B93
:1038000026D0144B1B685B68C31A13F1640F0DD4E8
:103810000223114A00F16401012000F035F9B8B12A
:1038200078460E4B1B6893B1984708BD094B196841
:103830000223094A4968012000F026F940B1784680
:10384000064B1B680BB1984708BD00DE08BD00DEC3
:1038500008BD00BF843100208138020044310020BF
:1038600008B5FFF71BFFFFF7EDFE00F049F9FFF782
:1038700063FF00F045F9FFF7BFFF012008BD00001E
:1038800008B5024B186800F077FE08BD80310020B3
:1038900008B5064B00221A605A609A60DA60044844
:1038A00000F040FE034B186008BD00BF84310020CB
:1038B000613802008031002038B50446002827D046
:1038C000A368002B2CD0EFF3108572B60023636140
:1038D00023784BB12378DBB2062B05D07846164B04
:1038E0001B68002B24D09847636923B17846124B9C
:1038F0001B68FBB1984701232370104B5A68626123
:103900005C6005B962B60E4B186800F035FE38BD34
:103910007846094B1B680BB19847D1E700DECFE72B
:103920007846054B1B680BB19847CCE700DECAE729
:1039300000DED9E700DEDEE74431002084310020DC
:103940008031002038B50446E0B1EFF3108572B63F
:103950002378DBB2062B1DD02378DBB2012B1ED0DF
:103960002378CBB12378033BDBB2012B03D90D4A7B
:10397000936801339360042323700B4B186800F0A5
:10398000FBFD09E07846094B1B680BB19847DCE763
:1039900000DEDAE70023237005B962B638BD0523DF
:1039A0002370F9E784310020803100204431002069
:1039B00070B50E460446E0B1EFF3108572B6237879
:1039C000FBB12378DBB2062B1BD02378DBB2012BB3
:1039D0003BD02378DBB2052B37D02378033BDBB217
:1039E000012B03D91A4A9368013393600323237090
:1039F0001FE07846174B1B680BB19847DCE700DEE9
:103A0000DAE7237843B12378DBB2062B04D078467B
:103A1000104B1B68ABB19847636923B178460D4BD7
:103A20001B6883B1984701232370094B5A68626170
:103A30005C606660084B186800F09EFD05B962B6D0
:103A400070BD00DEE8E700DEEDE701232370F0E75C
:103A500084310020443100208031002010B4094B13
:103A600000F15002002443F8224000F1100401222A
:103A7000A240C3F8042300F5A87043F820105DF8B5
:103A8000044B704700800040022801D9072070478E
:103A900038B533F0030401D00A2038BDEFF31084A9
:103AA000104D2C6072B6104C44F820200F4A42F89A
:103AB00020100F4A135400220E4B43F820200E4BC7
:103AC0001B7833B10D4B1B68CA1A07D41146FFF798
:103AD000C5FF044B186818B962B638BD5A1AF5E725
:103AE000002038BDB831002098310020AC310020D2
:103AF00094310020C0310020A4310020A8310020E2
:103B0000EFF310830C4A136072B60C4B1B787BB139
:103B10000B4B0022C3F84C210122DA64D3F84C0588
:103B2000084B1B681844044B1B6803B962B6704706
:103B3000054B1868F7E700BFB8310020A43100201A
:103B400000800040A8310020BC31002070B5002466
:103B500018E07846214B1B680BB1984728E000DE3F
:103B600026E00146304600F077FC20B178461B4B3A
:103B70001B6883B3984704F150030021184A42F8A8
:103B800023100134022C28D804F15003144A52F8AF
:103B90002330002BF5D0D2F8043304F11005EB40AC
:103BA00013F0010FEDD00F4B53F82460002ED0D04E
:103BB00000220C4B43F82420012303FA05F5084B9F
:103BC000C3F80853FFF79CFF074B1B5D13F0020F70
:103BD000C7D0B047CFE700DECDE770BD443100204D
:103BE00000800040983100209431002070B50546D7
:103BF000002419E0981A2CE05E1A2EE02946184697
:103C000000F02AFC28B178462B4B1B68002B37D0DC
:103C100098472A4B53F824302BB101221A60002216
:103C2000264B43F824200134022C38D8244B04F5C9
:103C3000A872002143F8221004F1500243F8221028
:103C400053F822301F4B53F824201F4B1B68D01A07
:103C5000D0D405F17801CE1ACED4864212D91B4BAE
:103C600053F82430002BD4D00021184A42F82410F5
:103C7000174A125D12F0020FC0D028469847C8E7D5
:103C800000DEC6E7114B53F82430002BCBD0E0B256
:103C9000511B02D4FFF7E2FEC5E7A91AFAE70D4B64
:103CA0001B681BB94FF480720B4B1A60064B1D60EA
:103CB00001220A4B1A7070BD44310020C03100202F
:103CC00000800040AC310020A83100209831002055
:103CD00094310020B831002000E100E0A431002040
:103CE000002300E00133022B0ED80F4AD25C12F001
:103CF000010FF7D000220C49CA540C4941F8232087
:103D00000B4941F82320EDE70A4B186000220A4BCB
:103D10001A704FF0FF32094BC3F808234FF480723A
:103D2000074BC3F880217047943100209831002060
:103D3000C0310020BC310020A431002000800040B0
:103D400000E100E0024A136801331360704700BFCE
:103D5000CC31002010B50023084A1360084C094AF2
:103D6000A260094AE2602361FFF7CAFE00F5C33092
:103D7000A03060602046FFF79FFD10BDCC310020D1
:103D8000D0310020453D0200A08601002FDF7047A2
:103D900030DF704710B4034600685A68A0EB721019
:103DA0009C6882EAF4321A60D9680C445C60014471
:103DB00099601044D8605DF8044B704770B582B0CC
:103DC0000D46064608B100240FE07846104B1B68EC
:103DD0000BB19847F7E700DEF5E79DF807103019BB
:103DE000FFF7D6FF9DF807301C44AC420DD20DF111
:103DF0000700FFF7CBFF9DF80730002BF7D02A1BF9
:103E00009342EAD98DF80720E7E702B070BD00BF02
:103E10004431002030B583B00546002402A840F8A4
:103E2000044D0421FFF7CAFF074B2B60019B6B6019
:103E3000AB60EB6003E02846FFF7ACFF0134132CC6
:103E4000F9D903B030BD00BFED5EEAF108B5A0F1CD
:103E5000C8039BB2632B09D9A0F596739BB2632B61
:103E600007D9B0F5C87F07D2062008BD0DF07AFC4F
:103E700008BDFDF719F908BD01F0BCF808BD08B58B
:103E8000A0F1C8039BB2632B09D9A0F596739BB22E
:103E9000632B07D9B0F5C87F07D2062008BD0DF007
:103EA00073FC08BDFDF77CF908BD01F0E3F808BD1F
:103EB00045DF704746DF704747DF70472DE9F04325
:103EC0001A4BD3F804650027837A5BBB184BD3E900
:103ED0000045341B24F07F44002562016B01121B56
:103EE00063EB0503590241EAD2514FEA422E1EEB21
:103EF000040241EB05034FEA831949EA92694FEA4C
:103F00008218B8EB020269EB0303A4185D41E30BCE
:103F100043EA4543426813444360054BC3E90067E5
:103F2000BDE8F083002383720368F3E700B000402C
:103F30002032002008B50D4B1B78012B07D0022B37
:103F40000DD078460A4B1B6873B1984703E00223F3
:103F50000375012383720022044B1A7008BD0323EA
:103F60000375044B8361F6E700DEF4E719320020A5
:103F7000443100200832002010B504460023C360FD
:103F80000361FFF79BFF2368084A926822600121C2
:103F9000217503B9064B991AA161B1F57A7F01D356
:103FA000934202D24FF47A73A36110BD083200200D
:103FB00080969800094B03221A75094A9A611A687B
:103FC00040F6D8639A4204D840F6D862044B9A600F
:103FD000704743F2B062024B9A607047E8310020AC
:103FE0000832002038B505460024047501234372C9
:103FF0004068FFF7FBFD0AF097FD6B682A681344E1
:104000000C490968283101FB02F10B4AA2FB01218E
:10401000A3EB91410323094A78392046FFF734FD89
:1040200030B17846064B1B680BB1984738BD00DEAF
:1040300038BD00BF0432002083DE1B43B53F0200C1
:104040004431002010B50C4631B1036901330361DE
:104050008269036813440360C3680133C3600122AB
:104060000275826952088261012B0DD0022B19D092
:1040700082690368134417498B4222D840F6D763FC
:104080009A4221D800231DE0B2F5FA7F05D040F610
:10409000D8639A42ECD88361EAE7002CF7D1002379
:1040A0008361E5E70369022B06D0012BE0D1002CE8
:1040B000DED100238361DBE70268064B9B1A836134
:1040C000D6E7002313B110BD0123FBE7FFF78AFFFA
:1040D000F9E700BF80969800437A1BB900220E4B87
:1040E0001A70704710B504460AF040FD60682268F7
:1040F00010440A4B1B68283303FB02F3084AA2FB57
:104100000323A0EB93407838FFF7EAFD00236372A6
:104110000022014B1A7010BD18320020043200201A
:1041200083DE1B4308B50122234B1A72234B1B78F5
:1041300013B1234B1B783BB300221F4B1A75042885
:104140001AD8DFE800F00314110C07001A48FFF733
:1041500013FF22E001211848FFF774FF1DE0002142
:104160001548FFF76FFF18E00AF096FC15E0FFF71F
:10417000EDFC0AF0C3FC10E07846124B1B680BB153
:1041800098470AE000DE08E0FFF7BAFC0A4B5A68DD
:10419000801A18601846FFF7CDFE074B1B7D023BC7
:1041A000DBB2012B04D9044800230372143008BD8C
:1041B0000148FFF791FFF6E7E831002019320020AF
:1041C000183200204431002008B50438032831D8C3
:1041D000DFE800F016250E02FFF76CFE002829D05C
:1041E0007846154B1B680BB1984708BD00DE08BD2B
:1041F0007846114B1B680BB1984708BD00DE08BD1F
:104200000E4840F6D8638360FFF756FE90B17846BB
:10421000094B1B680BB1984708BD00DE08BD074875
:10422000FFF74AFE30B17846034B1B680BB1984745
:1042300008BD00DE08BD00BF443100200832002068
:1042400010B40D4A0023137013710121517143F210
:10425000B064946043F69824D460084A1060084A19
:104260001370084A1370084A1372537213609172E4
:1042700053605DF8044B7047083200200432002080
:104280001832002019320020E831002008B5064815
:10429000FFF70EFE034608B1184608BD0348FFF7B6
:1042A0000BFE0346F8E700BF25410200083200205C
:1042B000084B1B7D032B09D0074B1B78012B07D024
:1042C000022B01D000207047012070470120704769
:1042D00001207047E831002019320020014B586856
:1042E000704700BFE83100200E4B5B7A0BB900200D
:1042F000704710B50B4B5C681A6814440A4B1B6876
:10430000283303FB02F3094AA2FB0323A4EB9344E3
:10431000783CFFF7F5FB0346201A00D410BD181BAC
:1043200010BD00BFE83100200432002083DE1B43B3
:10433000014B187A704700BFE8310020EFF310837B
:1043400072B6054A527A22B14FF48071034AC2F81C
:10435000001103B962B67047E831002000E100E0C7
:1043600008B50122024B1A70FFF7E8FF08BD00BF35
:104370001932002008B5094B1B782BB148B9084BFE
:104380001B7813B1012300E00023044A107013B915
:1043900008BD0023F9E7FFF7D1FFF9E71832002045
:1043A0001932002008B50378012B0ED013B1022B6F
:1043B00005D008BD436863B18068984708BD43686D
:1043C0003BB1C1688068984708BD43680BB18068FD
:1043D000984708BD044B1B780F2B04D04FF4802264
:1043E000024BC3F8002170476833002000E100E071
:1043F00010B501460548FDF7F1FE10B10424204632
:1044000010BD0446FFF7E6FFF9E700BF28320020A1
:1044100010B50C4C20700C480C4B0360102343600B
:104420008360FDF7B1FE0A48FEF734FF23780F2BB7
:1044300007D05B01DBB2074A82F812334FF48023C6
:10444000136010BD68330020283200203C32002069
:104450006C33002000E100E030B585B00C46054625
:1044600048B100238DF80030019502946846FFF7AB
:10447000BFFF05B030BD7846034B1B680BB19847B2
:10448000EFE700DEEDE700BF4431002010B5EFF3A9
:10449000108472B60C490A68531C0B6042B90B4A6F
:1044A00012780F2A04D04FF48021094AC2F88010F4
:1044B00023B97846074B1B681BB1984704B962B60D
:1044C00010BD00DEFAE700BF3C3300206833002057
:1044D00000E100E04431002010B5EFF3108472B623
:1044E0000C4B1B6823B978460B4B1B6883B198476C
:1044F000084A1368013B13603BB9084B1B780F2B2C
:1045000003D04FF48022064B1A6004B962B610BD86
:1045100000DEEDE73C33002044310020683300200A
:1045200000E100E010B50446A8B1104B1B68072B52
:1045300004D978460E4B1B68ABB19847EFF3108354
:1045400072B60A4A1068411C11600A4A42F82040BB
:1045500003B962B610BD7846054B1B680BB198478E
:10456000E3E700DEE1E700DEE8E700BF40330020DC
:10457000443100204433002038B504460F4B1B68FB
:10458000834204D878460E4B1B68A3B19847EFF3DB
:10459000108572B661090B4A04F01F04012303FA67
:1045A00004F452F82130234342F82130FFF712FF80
:1045B00005B962B638BD00DEE9E700BF4033002030
:1045C000443100206433002070B50D461646044681
:1045D00058B195B1EFF3108372B6A560E660002282
:1045E0002274246003B962B670BD7846074B1B681D
:1045F0000BB19847EDE700DEEBE77846034B1B680D
:104600000BB19847E6E700DEE4E700BF4431002045
:1046100038B5044650B1A36883B1EFF3108572B684
:10462000237C9BB1112005B962B638BD78460C4B8E
:104630001B680BB19847EEE700DEECE77846084BC5
:104640001B680BB19847E8E700DEE6E70123237417
:1046500021460448FEF730FEFFF7BCFE0020E2E7EB
:10466000443100206C33002010B5044608B1207C92
:1046700010BD7846034B1B680BB19847F7E700DE87
:10468000F5E700BF4431002070B584B0304B1B7893
:1046900023B178462F4B1B682BB1984701252C4B33
:1046A0001D70002408E000DEF8E72B4B53F824309F
:1046B00098470646F0B10134284B1B689C421ED235
:1046C0006109274A52F8213004F01F00C34013F05B
:1046D000010FF0D0EFF3108372B6012606FA00F056
:1046E00052F8216026EA000642F82160002BDCD156
:1046F00062B6DAE72046FFF73FFF3546DBE71948A9
:10470000FEF700FE08E000DEA368E068984700239B
:1047100023741448FEF7F6FD68B10468237C002B6F
:10472000F2D178460B4B1B68002BECD09847EBE797
:104730006846FFF737FE69460B48FDF77CFD002809
:10474000F6D00022024B1A70284604B070BD00BF9C
:1047500074330020443100204433002040330020D3
:10476000643300206C3300202832002008B5FFF7A6
:104770008BFF08BD08B5FBF729F808BD08B5FEF7A3
:10478000A1FE08BD08B502F047FA08BD08B502F061
:1047900094FA08BD38B599B3022964D819705978CC
:1047A00001F0800162F3C7115970C168C1F307427B
:1047B00001F47F442243090401F47F010A439A7003
:1047C000C2F30721D970120C1A7101890A0A42EA50
:1047D0000122A3F8052041880A0A42EA0122A3F82F
:1047E000072001690A0202F47F0242EA0162080A14
:1047F00000F47F40024342EA1162C3F8092038BD49
:1048000000241C70817A5A7861F306025A70C17ACA
:10481000D2B261F3C7125A70C168C1F3074201F402
:104820007F452A43090401F47F010A439A70C2F3C9
:104830000721D970120C1A7101890A0A42EA012271
:10484000A3F80520DC711C7201690A0202F47F02E0
:1048500042EA0162080A00F47F40024342EA116220
:10486000C3F8092038BD7846034B1B680BB1984745
:1048700038BD00DE38BD00BF4431002070B584B0C3
:104880000E461446054668B162B1002300930193B9
:10489000029303932346324629466846FFF76EFF8C
:1048A00004B070BD7846034B1B680BB19847ECE72A
:1048B00000DEEAE744310020F0B585B00F4614462B
:1048C0001D46064690B18AB183B10B9B73B16B460E
:1048D0003A4631462046FFF751FF0B9B9DF82820B2
:1048E00029466846FFF74AFF05B0F0BD7846034BFE
:1048F0001B680BB19847EAE700DEE8E74431002087
:104900002DE9F04786B000AF884615469946044623
:10491000002858D0002956D0002B54D005F111069C
:1049200005F1100A05F1180323F00703ADEB030DA1
:10493000294B1B6807F1180040F8043D6A46042122
:10494000FFF79CFF3B1D102221466846FFF716FF2C
:104950002A46414668460FF093FF01230DF80530C3
:10496000EA186B4692B26946381DFFF707FF9DF8BB
:104970000F3003F07F034C4604F8013B2A464146C2
:1049800004A80FF07DFF02230DF80A30B6B22346CB
:1049900032466946381DFFF7F1FE20686168A2685B
:1049A000E368009001910292039303230DF80A300B
:1049B00009F1110332466946381DFFF7DFFE18374B
:1049C000BD46BDE8F0877846044B1B680BB198479D
:1049D000A4E700DEA2E700BF684D030044310020D9
:1049E00070B588B00D46064600B3F9B1134C636844
:1049F000039304AA042103A8FFF740FF04AB10228D
:104A000031461846FFF7BAFE083494E803000190D7
:104A10008DF8081004AB052201A91846FFF7AEFE79
:104A200006AB03CB2860696008B070BD7846044BC4
:104A30001B680BB19847D9E700DED7E7684D030044
:104A40004431002070B586B00D460646F8B1F1B18C
:104A5000134C2369019302AA04210DEB0100FFF717
:104A60000DFF02AB102231461846FFF787FE63693F
:104A700006A941F8183D02AB04221846FFF77EFE56
:104A80009DF8173003F03F032B7006B070BD7846D9
:104A9000044B1B680BB19847DAE700DED8E700BF8C
:104AA000684D0300443100204B78DB09C3724B781A
:104AB00003F07F0383728A78CB781B0243EA0243B8
:104AC0000A791343C3604A798B7943EA022303814D
