:020000021000EC
:10F0000000F0002035F2010065F20100E505020084
:10F0100069F201006BF201006DF2010000000000D6
:10F020000000000000000000000000006FF201007E
:10F0300071F201000000000073F2010075F201009E
:10F0400079F201007BF201007DF201007FF2010004
:10F0500081F2010083F20100DD0A020087F2010063
:10F0600089F201008BF20100D90802008FF2010041
:10F0700091F2010093F2010095F2010097F2010074
:10F0800099F201009BF20100115C02009FF2010065
:10F09000A1F20100A3F2010031060200A7F2010073
:10F0A000A9F20100ABF20100ADF20100AFF20100E4
:10F0B000B1F20100B3F2010077F2010077F2010032
:10F0C000B5F20100B7F20100B9F20100BBF2010094
:0CF0D000BDF20100BFF20100C1F201001E
:10F0DC00354936480A1A02D0072291438D463449E5
:10F0EC0034480A1A06D00722914381F30988022278
:10F0FC0082F3148830483149314A00F043F83148E2
:10F10C003149324A00F03EF831483249324A00F077
:10F11C0039F832483249334A00F034F8324833492E
:10F12C00334A00F02FF833483349344A00F02AF8B8
:10F13C0033483449344A00F025F834483449002225
:10F14C0000F02BF833483449002200F026F83348FD
:10F15C003349091A082903DB0022026004300160DC
:10F16C001F482049884205D00268043003B49047F8
:10F17C0003BCF7E700208646EC4600200021294A14
:10F18C009047FEE7884207D0521A05D00378013029
:10F19C000B700131013AF9D17047884202D00270EC
:10F1AC000130FAE77047000000F0002000E8002072
:10F1BC0000F0002000F000203C3E0300C0190020AD
:10F1CC00701A0020C4F20100C4F201002C2C0300C0
:10F1DC003C3E0300C0190020C01900202C2C030059
:10F1EC002C2C03002C2C03002C2C03002C2C0300A7
:10F1FC002C2C03002C2C03002C2C03003C3E030075
:10F20C00EC3E0300701A0020701A0020701A0020C7
:10F21C00E54A0020E84A0020E84A0020E84A00209D
:10F22C00E84E0020C5FB010008484FF00701884359
:10F23C008546074880470748016841F47001016022
:10F24C00BFF34F8FBFF36F8FFFF742BF00F000206B
:10F25C00CD93020088ED00E0FEE7FEE7FEE7FEE757
:10F26C00FEE7FEE7FEE7FEE7FEE7FEE7FEE7FEE76A
:10F27C00FEE7FEE7FEE7FEE7FEE7FEE7FEE7FEE75A
:10F28C00FEE7FEE7FEE7FEE7FEE7FEE7FEE7FEE74A
:10F29C00FEE7FEE7FEE7FEE7FEE7FEE7FEE7FEE73A
:10F2AC00FEE7FEE7FEE7FEE7FEE7FEE7FEE7FEE72A
:08F2BC00FEE7FEE7FEE700BFDC
:10F2C4003EDF704710B5084C041B0848A0FB04340B
:10F2D400E408022C04D97846054B1B6813B19847FF
:10F2E400204610BD00DEFBE7741A0020ABAAAAAAD0
:10F2F400983400200B7843B9104B1B6813F4804FEB
:10F3040003D00F4B1B68032B00DC704700B585B09E
:10F314000C4BD3F804354A685088097B92F91420C1
:10F32400039202910190084A00924FF487720749B0
:10F33400042007F085FC05B05DF804FB001A0020EA
:10F34400FC19002000B00040102D0300082D03001C
:10F3540010B50C46FFF7B6FF012C19D03CB1022CB6
:10F364001BD07846144B1B68F3B1984703E0012186
:10F37400113001F017FB1124104B1B8811339C42F0
:10F3840014D2204601F002FB014680B10134F3E7B8
:10F394000021113001F006FBEDE7062264214FF451
:10F3A400F01001F011FBE6E700DEE4E70121142090
:10F3B40001F0F8FA10BD00BF98340020A41A002010
:10F3C40030B583B00446494B1B6813F4804F03D017
:10F3D400474B1B68032B17DC464B1B880BBB434B6B
:10F3E4001B6813F4804F73D0414B1B68012B6FDDF6
:10F3F400414BD3F80435414A00924FF48D72404991
:10F40400022007F01DFC63E03B4BD3F80435019068
:10F414003C4A009240F217123949042007F010FCCC
:10F42400DAE79C4217D3032C15D0304B1B6813F436
:10F43400804F4DD02E4B1B68012B49DD2E4BD3F84A
:10F4440004350194304A009240F21F122C490220E4
:10F4540007F0F6FB3CE0022C03D9032C1DD000205E
:10F464000EE004EB44029300284D1D4404F1110006
:10F4740001F08CFA80F00101C9B2284613F0A4F916
:10F48400082816D0042814D0112812D000B3204A1A
:10F494004FF4A07101F07CF81AE004F1110001F0BE
:10F4A40075FA80F001010322C9B21A4813F0B0F9C9
:10F4B400E6E70E4B1B6813F4804F03D00C4B1B681C
:10F4C400032B07DC042232214FF4F01001F07CFA04
:10F4D40003B030BD084BD3F804350F4A009240F214
:10F4E4003B120749042007F0ABFBEBE7001A0020AE
:10F4F400FC190020A41A002000B00040682C03006E
:10F50400082D0300542C0300802C0300741A0020DF
:10F51400C02C0300981A0020A02C030008B5A0F109
:10F524003003032B00D908BD1846FFF749FFFAE75B
:10F5340070B586B006A9012341F8043D37480DF0A3
:10F54400E9FBA0B906AA012342F8043D3449334B30
:10F5540018880DF0BBFC78B906A9042341F8043DD2
:10F5640002A80DF0C1F960B90024254617E02D4A20
:10F57400532101F00DF8E5E72A4A552101F008F876
:10F58400EAE7284A5A2101F003F8EDE79DF8003034
:10F59400012B16D09DF80030032B31D00134059B8C
:10F5A4009C4238D2694606AB03EB440333F8100C93
:10F5B4000DF04EF90028E9D01A4A5F2100F0E8FF67
:10F5C400E4E7194901EB4501BDF802000DF020FC08
:10F5D4000028DFD1144B33F815204FF6FF739A42FD
:10F5E400D8D0124901EB450168460DF0BFF910B9B6
:10F5F4000135ADB2D2E70B4A692100F0C9FFF7E744
:10F604000B4968460DF0B2F90028C7D0054A6E21AF
:10F6140000F0BEFFC2E7284606B070BDC01A002045
:10F62400701A0020C02C0300A81A0020C41A00205D
:10F63400AE1A002030B583B000242546022C16D81B
:10F6440002A94FF6FF7321F8023D04EB4402930034
:10F65400084AD05A0BF044FA48B9BDF806204FF6D0
:10F66400FF739A4203D00135ADB20134E6E7284670
:10F6740003B030BD741A002010B584B08B4B1B68E6
:10F6840013F4804F03D08A4B1B68032B0BDC0CF064
:10F6940043FF0BF031F94FF6FF73864A1380864A15
:10F6A4001380002313E0854BD3F80435844A009279
:10F6B40094228449042007F0C3FAE8E74FF6FF7266
:10F6C400814921F81320814921F813200133022BA9
:10F6D400F4D94FF6FF727E4B1A807E4812F0DCFD9F
:10F6E40038B97D4A00217D4812F09AFF30B90024D0
:10F6F4000AE07B4AA32100F04BFFF2E7784AA421F9
:10F7040000F046FFF3E70134032C10D863002344D0
:10F714009A0074481044744B4360A1B213F032F859
:10F724000028F0D06E4AA92100F032FFEBE70CF07C
:10F734002DFEC8B1FFF7FCFE6C4B18800AF0F6FFF3
:10F74400002842D0FFF776FF694B188000F06AFE6C
:10F75400674B1B88654A10888342C0F09A80022850
:10F7640040F29D8004B010BD624B1B6804A840F8B1
:10F77400043D0CF0E5FEC8B955494CF6FE200CF0EA
:10F784003BFFC0B94B4A5C4900200DF02BF9B8B9D6
:10F79400494B5A4A4749098800200DF055FB002877
:10F7A400CCD04F4AB72100F0F3FEC7E74C4AB4214E
:10F7B40000F0EEFEE0E74A4AB52100F0E9FEE1E799
:10F7C400474AB62100F0E4FEE2E73B4B1988434B7D
:10F7D40018880BF0E1F940B9374B19883F4B18886A
:10F7E4000BF01AFA30B900240FE03D4AC12100F0B1
:10F7F400CFFEF1E73A4AC22100F0CAFEF3E7384AE5
:10F80400C72100F0C5FE0DE00134022C1AD804EB28
:10F8140044029300284A1188324AD05A0BF0BCF9AA
:10F824000028ECD104EB44029300234A11882D4AAA
:10F83400D05A0BF0F1F90028E6D0294AC82100F08B
:10F84400A7FEE1E71C4B1988264B988C0BF0A4F912
:10F8540080B9194B1988234B988C0BF0DDF970B9DA
:10F864001B4B19881F4B988C0BF00AF960B90AF0EE
:10F874002BFB6BE71A4ACB2100F08AFEE9E7184A12
:10F88400CC2100F085FEEBE7154ACD2100F080FE87
:10F89400EDE703F5807080B200F094FC62E700F5B8
:10F8A400807080B200F0A4FC5CE700BF001A002066
:10F8B400FC190020C01A0020701A002000B000407B
:10F8C400302C0300082D0300A81A0020C41A0020BD
:10F8D400AE1A002009020200F9F20100B01A002059
:10F8E400C02C0300741A002055F30100C21A002032
:10F8F400A41A00202C2C0300582D0300482D0300CB
:10F9040010B582B0314B1B6813F4804F03D0304BD9
:10F914001B68032B2BDC2F4B1B8803EB43018A0052
:10F924002D4931F813102D4B985A0BF0A9F868BBE8
:10F934000AF0CAFA274C20880021113001F032F86D
:10F94400238801339BB22380022B25D91F4B1B68CC
:10F9540013F4804F03D01E4B1B68032B29DC0422B5
:10F9640064214FF4F01001F02FF802B010BD1C4BCD
:10F97400D3F80435174A128801921A4A00924FF4B8
:10F98400A5721949042007F05BF9C4E7174A4FF43C
:10F99400A77100F0FDFDCBE7154B188800F58070CA
:10F9A40080B200F025FC20880121113000F0FAFF1C
:10F9B400DBE70B4BD3F804350E4A009240F25B129E
:10F9C4000949042007F03CF9C9E700BF001A0020E8
:10F9D400FC190020A41A0020C41A0020741A002064
:10F9E40000B00040BC2D0300082D0300C02C030010
:10F9F400C21A0020E42D030000B583B01E4B1B681F
:10FA040013F4804F03D01D4B1B68032B19DC1C4BD4
:10FA14001A881C4B33F812000CF040FE00BB184B44
:10FA24001A88194B33F812000DF0C6F9F0B9174BC8
:10FA3400188800F5807080B200F0DAFB03B05DF83E
:10FA440004FB134BD3F804350D4A12880192114A72
:10FA540000924FF4B1721049042007F0F1F8D6E790
:10FA64000E4A40F2651100F093FDD8E70B4A4FF4BB
:10FA7400B37100F08DFDDAE7001A0020FC190020B4
:10FA8400A41A0020C41A0020A81A0020C21A0020B8
:10FA940000B00040982D0300082D0300C02C030083
:10FAA40010B582B004463A4B1B88022B05D9784620
:10FAB400384B1B68002B42D09847374B1B6813F414
:10FAC400804F03D0354B1B68032B3ADC344B198829
:10FAD400344B03EB4101608A0CF08EFD00283ED1CB
:10FAE4002F4B1A88304B03EB4203A2682F49098835
:10FAF400608A0DF01DF9002837D1294B1A882A4B4A
:10FB040033F8120012F050FC002834D1244B1B8827
:10FB1400244A32F81310244A32F8130012F0F0FB8E
:10FB240000282ED11E4A138801331380184B1888DD
:10FB340000F5807080B200F045FB02B010BD00DE1D
:10FB4400BBE71B4BD3F80435628A0192194A009231
:10FB540040F26F121849042007F072F8B6E7174A0A
:10FB64004FF4B97100F014FDBAE7144A40F273116E
:10FB740000F00EFDC1E7114A4FF4BB7100F008FD1F
:10FB8400C4E70E4A4FF4BC7100F002FDCAE700BF9F
:10FB9400A41A002098340020001A0020FC19002028
:10FBA400C21A0020C41A0020A81A0020C01A00207B
:10FBB40000B00040002E0300082D0300C02C0300F9
:10FBC40000B583B01A4A04214FF4C04007F01CF872
:10FBD400184B1B6813F4804F0ED0174B1B68032B74
:10FBE4000ADD164BD3F80435154A00924FF4C67259
:10FBF4001449042007F024F800F0A6FF124800F08E
:10FC04003FFF70B90121112000F0CCFE00F0ECFDA3
:10FC1400FFF732FD64210D4800F076FEFFF750FB3C
:10FC2400FCE70B4A40F28F1100F0B2FCEAE700BF98
:10FC3400E16B0200001A0020FC19002000B0004013
:10FC4400682D0300082D0300C5F3010021F5010010
:10FC5400C02C030010B58AB0AB4B1B78033B072BB9
:10FC640000F27081DFE813F008000B0029004E0059
:10FC740076009C00E2001E010422A34B1A70A34BE1
:10FC84001B6813F4804F03D0A14B1B68032B04DCC7
:10FC940012F0A4FB60B90AB010BD9E4BD3F8043532
:10FCA4009D4A00926F229D49042006F0C9FFEFE7A8
:10FCB4009B4A702100F06CFCEDE7944B1B6813F435
:10FCC400804F03D0924B1B68032B10DC954B04AC84
:10FCD4000FCB84E80F0022460021084612F0AAFB4D
:10FCE4000028D8D08E4A792100F052FCD3E7894B02
:10FCF400D3F804358C4A009277228849042006F010
:10FD04009FFFE3E7814B1B6813F4804F03D0804BC4
:10FD14001B68032B13DC4FF6FF73ADF8123002237C
:10FD2400ADF81030049A0021804B188812F016FCAC
:10FD34000028B0D07A4A852100F02AFCABE7754B45
:10FD4400D3F804357A4A009280227449042006F0DC
:10FD540077FFE0E76D4B1B6813F4804F03D06C4BC7
:10FD64001B68032B11DC5923ADF812300021ADF8C8
:10FD74001010049A6D4B188812F0F0FB00288AD0FA
:10FD8400674A912100F004FC85E7624BD3F80435FF
:10FD9400684A00928C226149042006F051FFE2E790
:10FDA40000230493059306930793089309935F4AEA
:10FDB4001288ADF8102001228DF81420ADF8162019
:10FDC40003218DF81F109100022060F301018DF8CA
:10FDD40020108DF821204FF0FF328DF825208DF86A
:10FDE40026208DF823008DF82430484B1B6813F42B
:10FDF400804F03D0464B1B68032B0ADC04A812F087
:10FE040069FB00283FF447AF454AA72100F0C0FB37
:10FE140041E7404BD3F8043501220192464A00924F
:10FE2400A5223E49042006F00BFFE7E700230493D4
:10FE3400059306930793089309933C4A1288ADF8F7
:10FE4400102001218DF81410FF3A92B2ADF816205B
:10FE540003208DF81F008DF8211059218DF82510ED
:10FE64008DF82630294B1B6813F4804F03D0284BA0
:10FE74001B6883420ADC04A812F02CFB00283FF420
:10FE84000AAF274ABD2100F083FB04E7214BD3F8D6
:10FE940004350192294A0092BB222049042006F02D
:10FEA400CFFEE8E7194B1B6813F4804F03D0184BBF
:10FEB4001B68032B1CDC1D4B1888002305930322AD
:10FEC4008DF810204CF6FE22ADF812205922ADF820
:10FED4000E20ADF80C30039B04AA06CA12F015FBE1
:10FEE40000283FF4D8AE0E4ACC2100F051FBD2E6F4
:10FEF400084BD3F80435124A0092C422074904205F
:10FF040006F09EFED7E700BFDC1D0020001A00208B
:10FF1400FC19002000B00040D02E0300C02E0300C6
:10FF2400782E0300302E0300EC2E0300201E002048
:10FF3400FC2E0300202F03004C2F03008C2F030002
:10FF4400CC2F03007846034B1B680BB19847A2E6FD
:10FF540000DEA0E69834002000B589B05F238DF858
:10FF640004308DF805306E228DF806206F228DF84E
:10FF7400072072228DF8082064228DF80920692256
:10FF84008DF80A2063218DF80B108DF80C308DF854
:10FF94000D3073218DF80E1065218DF80F106D2131
:10FFA4008DF810108DF811208DF812308DF8133063
:10FFB4000023ADF81430ADF81630ADF818300E4A01
:10FFC4001288ADF81A209DF81C2002F0FE0263F39B
:10FFD40041028DF81C2001AA0146084811F0B0FB2B
:10FFE40028B90222064B1A7009B05DF804FB054AD1
:0CFFF400602100F0CDFAF4E7201E002090
:020000022000DC
:10000000AC1C0020DC1D0020782E030030B587B02A
:1000100004460378082B4CD8DFE803F005A7104B03
:100020004B814B4D45005B4B1B78012B41D104307C
:10003000FFF794FF0222574B1A703AE0564B1B68A9
:1000400013F4804F03D0554B1B68032B08DC514B36
:100050001B78022B0FD0032B2BD1FFF7FDFD28E0DF
:100060004F4BD3F804354F4A0092E3224E49042007
:1000700006F0E8FDEBE7484B1B6813F4804F03D014
:10008000464B1B68032B03DC0122424B1A7010E025
:10009000434BD3F80435454A0092E62242490420F6
:1000A00006F0D0FDF0E700223A4B1A700430FFF75B
:1000B000F9FC07B030BD102300220121406811F087
:1000C0006EFBB8B1344B1B6813F4804F0ED0334B2A
:1000D0001B68002B0ADD324BD3F804350190344AFB
:1000E0000092FD223049012006F0ACFD0122294B8F
:1000F0001A70DEE7284B1B6813F4804FD9D0274BCA
:100100001B68032BD5DD264BD3F80435294A009212
:100110004FF481722449042006F094FDC9E702AD32
:10012000254B0FCB85E80F0010222946606811F09F
:100130003FFBA0B9184B1B6813F4804FB9D0174B85
:100140001B68032BB5DD164BD3F804351B4A009210
:1001500040F20B121449042006F074FDA9E7184A76
:100160004FF4857100F016FAE4E70B4B1B6813F4AB
:10017000804F9ED0094B1B68032B9ADD084BD3F8A8
:100180000435104A00924FF488720749042006F0A3
:1001900059FD8EE7DC1D0020001A0020FC1900200C
:1001A00000B00040E42F0300C02E03000430030021
:1001B000283003006C300300402E03008C30030015
:1001C000782E0300B430030008B5084B1880084BA4
:1001D0001B78022B05D00322054B1A70FFF73CFD5C
:1001E00008BD0322024B1A7008BD00BF201E00206C
:1001F000DC1D0020024B18800122024B1A70704750
:10020000201E0020DC1D00202DE9F04784B004AF43
:1002100028B30C46154629B32388022B2AD048F26E
:10022000030293426FD048F23E02934200F0818075
:1002300048F23E02934200F0918048F21902934244
:1002400000F0A18048F21902934200F0B18048F218
:100250001F02934200F0C180BD46BDE8F087FFF762
:10026000CDFBF9E77846674B1B680BB19847D3E79E
:1002700000DED1E7644A1278042AD0D1634B1B68B0
:1002800013F4804F03D0624B1B68032B05DC05225F
:100290005D4B1A70FFF7E0FCDEE7E946AC466B0009
:1002A000083323F00703ADEB030D0DF11008C6462C
:1002B000002312E06268D25C59004FEA121A554ED0
:1002C000306810F80A000EF81300013102F00F0236
:1002D0003068825C0EF8012001336345EAD30023C5
:1002E00008F815304C4BD3F80435CDF808804B4A4C
:1002F00001924B4A00924FF49D724A49042006F045
:10030000A1FCCD46C3E7404A1278052A8BD1636829
:100310001B7833B1062B04D078463A4B1B6833B1B7
:1003200098470622384B1A70FFF796FC94E700DED8
:10033000F7E7354A1278062A7FF47AAF63681B78AC
:1003400023B178462F4B1B6833B1984707222E4BB9
:100350001A70FFF781FC7FE700DEF7E72A4A127880
:10036000072A7FF46AAF63681B7823B17846254B70
:100370001B6833B198470822234B1A70FFF76CFCB7
:100380006AE700DEF7E7204A1278082A7FF45AAFBE
:1003900063681B7823B178461A4B1B6833B19847C2
:1003A0000922194B1A70FFF757FC55E700DEF7E7F3
:1003B000154A1278092A7FF44AAF63681B7823B183
:1003C0007846104B1B6833B198470A220E4B1A70BF
:1003D000FFF742FC40E700DEF7E70B4B1B780A2BE8
:1003E0007FF43AAF63681B7823B17846054B1B68EE
:1003F00033B198470022044B1A70FFF783FA2BE7BA
:1004000000DEF7E798340020DC1D0020001A0020F1
:10041000FC190020041A002000B000405C2E0300EC
:10042000702E0300C02E030000B587B000221F4BC2
:100430001A7003AB1E4A07CA03C323F8022B120C1F
:100440001A701C491C4811F079F9B8B91B4B00937C
:1004500003AB184A18491A4811F031F9A0B91948E4
:100460000DF082FF0146164811F054F990B9134877
:1004700011F0A8F9A0B907B05DF804FB124A4FF4D7
:10048000BA7100F087F8E1E70F4A40F2751100F009
:1004900081F8E4E70C4A4FF4BB7100F07BF8E6E723
:1004A000094A40F2771100F075F8E4E7DC1D0020FE
:1004B000502E0300CC1A0020E01D00200D00020089
:1004C000AC1C0020EC1A0020782E030048DF704797
:1004D00010DF704760DF704761DF70474FF0A04367
:1004E0004FF4F012C3F80825C3F80C25EFF310837E
:1004F00072B60028FDD1704710B582B004460C4B8F
:100500001B6813F4804F0ED00A4B1B68002B0ADBCC
:10051000094BD3F804350190084A00924E2208494D
:10052000002006F08FFB2046FFF7D8FF02B010BD79
:10053000001A0020FC19002000B000404C310300DC
:100540003B31030010B584B00C460D4B1B6813F40F
:10055000804F10D00B4B1B68002B0CDD0A4BD3F8DF
:100560000435039202910190084A009270220849D2
:10057000012006F067FB2046FFF7B0FF04B010BD76
:10058000001A0020FC19002000B0004020320300B7
:100590003B31030000B585B00D4B1B6813F4804F51
:1005A00010D00C4B1B68002B0CDD0B4BD3F8043523
:1005B000039002910192094A0092482208490120C1
:1005C00006F040FB0120FFF789FF05B05DF804FB52
:1005D000001A0020FC19002000B00040F030030099
:1005E0003B31030000B583B00C4B1B6813F4804F04
:1005F0000DD00B4B1B68002B09DB0A4BD3F80435DD
:10060000094A009254220949002006F01BFB0120F0
:10061000FFF764FF03B05DF804FB00BF001A002081
:10062000FC19002000B00040E03003003B31030023
:1006300000B583B002E0019804F0ACF801A8FFF720
:1006400045FF0028F7D04F23ADF8023005E00848F9
:1006500004F09EF84F23ADF802300DF1020104487A
:10066000FFF73AFF0028F2D003B05DF804FB00BFAB
:10067000241E002010B584B00446274B1B6813F4D9
:10068000804F03D0254B1B68032B2CDC244B03939A
:10069000039B0293204B1B6813F4804F03D01F4B26
:1006A0001B68032B2ADC02A92046FFF713FF044630
:1006B000029A039B9A4213D0174B1B6813F4804F86
:1006C0000ED0164B1B68012B0ADD164BD3F80435F0
:1006D0000192154A00928C221449022006F0B2FAC7
:1006E000204604B010BD0F4BD3F80435104A0092D9
:1006F0007A220E49042006F0A5FAC7E7094BD3F881
:100700000435039A01920B4A009283220749042080
:1007100006F098FAC7E700BF001A0020FC19002075
:10072000C019002000B00040E43103003B31030059
:10073000B8310300D431030000B58BB00AAB43F8E5
:10074000240D26491846FFF7C3FE08BB244BE022C0
:1007500083F8162393F816335B09012B1FD9042B5A
:100760001FD0052B19D00123EBB942F2020050BB78
:100770000023039304930593069307930893099327
:1007800003A8FFF777FF18BB00200BB05DF804FB50
:10079000144A9321FFF7FEFED8E70023E4E7002385
:1007A000E2E70023E0E7104B9B682BB94FF480028F
:1007B0000B4B1A600020DAE70B4A136843F48003FE
:1007C00013600020D3E7074A9A21FFF7E3FECFE743
:1007D000044AA021FFF7DEFED6E700BF4505020070
:1007E00000E100E010310300741E002000B589B064
:1007F0002F4B1B6813F4804F03D02E4B1B68032B29
:100800002ADC2D4B18680790FFF796FF284B1B68D2
:1008100013F4804F03D0274B1B68032B27DC0023E6
:1008200005930693079B0393244B049307238DF8AA
:10083000183003A803F00CFF20BB1D4B1B6813F4FA
:10084000804F03D01B4B1B68032B20DC03F074FF8D
:1008500040BB09B05DF804FB194BD3F80435194AC5
:100860000092BB221849042006F0ECF9C9E7144BAA
:10087000D3F80435154A0092C5221349042006F026
:10088000E1F9CCE7124ACB21FFF784FED5E70C4B08
:10089000D3F804350F4A0092CD220B49042006F00C
:1008A000D1F9D3E70A4ACE21FFF774FED1E700BFA2
:1008B000001A0020FC190020DC300300F9040200BB
:1008C00000B00040683103003B3103008431030075
:1008D00010310300A031030008B50A4BD3F84031B2
:1008E00073B1094B1B683BB10FF00CFA002803DB16
:1008F000054B1B689847F7E70022024BC3F84021DD
:1009000008BD00BF00A00040801E0020D0B50B46EF
:100910001C4A10601C4C0022C4F80425C4F80825A9
:100920000922C4F810250E4600275801D90E821B53
:1009300061EB0703990141EA92619001801A61EB32
:100940000301CB0043EA5073C200901943EB070147
:100950004FF47A7200230018494111F085FFC4F862
:1009600040050123C4F800324FF48032C4F8042358
:100970002360064BE02283F80A234FF480621A605A
:10098000D0BD00BF801E002000A0004000E100E0BC
:100990004FF0A043D3F80425012303FA00F00242EC
:1009A0000CBF18460020704739B9012303FA00F044
:1009B0004FF0A043C3F808057047012303FA00F085
:1009C0004FF0A043C3F80C057047000070B402F06C
:1009D000FE02002400E0013494424CD24FF0A045C6
:1009E000D5F804354340C5F804354FF47A7303FB5A
:1009F00001F3002BEFD0214D2D68214E00BF00BF29
:100A000000BF00BF00BF00BF00BF00BFB5422FD076
:100A100000BF00BF00BF00BF00BF00BF00BF00BFDE
:100A200000BF00BF00BF00BF00BF00BF00BF00BFCE
:100A300000BF00BF00BF00BF00BF00BF00BF00BFBE
:100A400000BF00BF00BF00BF00BF00BF00BF00BFAE
:100A500000BF00BF00BF00BF00BF00BF00BF00BF9E
:100A600000BF00BF00BF00BF00BF00BF00BF00BF8E
:100A7000013BC3D1AFE770BC704700BF0C1A002028
:100A80000024F400F0B1104A1060002309E00F4A7E
:100A9000D25C02F5E0720E484FF0A04141F822000E
:100AA0000133032BF3D90B4B4FF00042C3F804235F
:100AB0000020C3F87C01084BC02283F806234022A3
:100AC0001A6070470E207047841E002040320300D9
:100AD0000C0003000060004000E100E010B50024BD
:100AE000144BC3F87C4103E0D11A14E00134E4B2A2
:100AF000032C1ED84FF0A043D3F810250E4B195DE0
:100B000001238B409343F1D00C4B1B680C4AD2F865
:100B10000425991AE8D441F69A139942E6D9084B6C
:100B2000D3F80425054B1A60064B1B6820469847EE
:100B3000DCE710BD0060004040320300881E00204A
:100B400000B00040841E0020062070474FF0A043F4
:100B50000322C3F86427C3F86827C3F86C277047DB
:100B600008B5074B1B780BB9062008BD054B1B6861
:100B70000BB1984708BD0146034802F0ABFC08BD25
:100B8000A01E0020A41E00208C1E0020064B074A39
:100B900092E8030083E803000833443292E803003C
:100BA00083E80300704700BFA81E0020600000100B
:100BB00000487047A81E002043DF704770B58CB016
:100BC00003460E4615466C46006859689A68DB680D
:100BD0000FC430687168B268F3680FC46846FFF7E5
:100BE000EBFF08AC0FCC28606960AA60EB600CB02A
:100BF00070BD0000002308E0074901EBC30000229C
:100C00004280426001F8332001331F2BF4D90022C7
:100C1000024B1A60704700BFB81E0020B81F0020AA
:100C200030B405460F4B1B6800240AE01F230E4A10
:100C300012F83300A0B102EBC3025288AA4207D0D7
:100C400001341F2C0BD85A1E002BEFD01346EEE7B1
:100C5000054A02EBC30252688A42F1D100E000204B
:100C600030BC7047B81F0020B81E002030B40A4ABC
:100C700013680A4C04EBC30568806960012104F81D
:100C800033100B441360202B01D030BC704700227E
:100C9000014B1A60F9E700BFB81F0020B81E002002
:100CA000C0F30C038B4202D3C91A08447047C91A17
:100CB0000844A0F500507047C37D002B41D08378D5
:100CC0000A7802F0800203F07F0313430B7002786E
:100CD0000B7803F07F0343EAC2130B7003787BB3F6
:100CE00030B44378082B14BF002201224B7803F064
:100CF0007F0343EAC2134B70858803F08003C5F37A
:100D0000861423434B708A7802F0030242EA85027C
:100D1000D2B28A70857902F0FC02C5F3C104224385
:100D20008A70CB7803F01F0343EA4513DBB2CB7024
:100D3000C27903F0E00302F01F021343CB7030BC12
:100D4000704783780A7802F0BF029B0103F04003EA
:100D500013430B70C27803F0C00302F03F02134349
:100D60000B70B4E730B405460023184607E06C2248
:100D7000104C02FB0342928AAA4210D00133032B8B
:100D800016DC6C220B4C02FB034292F84420002A32
:100D9000EDD10028F2D16C2202FB0340EEE76C2279
:100DA00002FB034292888A42E8D16C2000FB034098
:100DB00030BC70473020002010B403460A468969D1
:100DC0004978C1709169097881F001018170916958
:100DD0004162118A0B2903D8D17A49B3012100E07D
:100DE0000121197041B31649897D19BB042058703F
:100DF000118A01440B31134880FB0140C917C1EB34
:100E000060010139D971002199710021D97503F16F
:100E10000C0492E8030084E8030051691962118907
:100E20009982917A9975D2699A625DF8044B7047FC
:100E30000021D6E70820DAE704215970E5E700BF72
:100E400018200020ABAAAA2A30B403460C46097821
:100E5000817000214162A1680B2903D8217BF1B187
:100E6000012100E0012119700020587029B1A1680A
:100E70000731C9080139D97198710121D97503F178
:100E80000C0504F1100103C985E80300E18999828A
:100E9000A1691962217F99759A6230BC704700215F
:100EA000E1E700000021164B1B68994226D200237F
:100EB000144A02EBC102526893421DD210B4114A87
:100EC00052F8312002EBC30412F8332082420DD0D5
:100ED00001330C4A02EBC10252689342EFD3013155
:100EE000074B1B68994205D20023F2E760685DF862
:100EF000044B70470020FAE70131D4E70020704727
:100F0000BC1F0020C01F002070B58CB006460D46E7
:100F100014462C22002101A811F024FE0C238DF888
:100F20000430ADF808604FF0000365F300038DF85E
:100F30000A308DF80B4001A801F020FB0CB070BD09
:100F400030B58DB005460C462C22002101A811F0C9
:100F500009FE0D238DF8043002958DF80C4001A890
:100F600001F00CFB0DB030BD00B58DB043784BB92E
:100F7000084B9A4206D001238DF80430029201A852
:100F800001F0FCFA044B186804F048FD0DB05DF860
:100F900004FB00BF5EE6655ECC1F0020F0B40D6868
:100FA0004C688F68CE68D5601461576196610D6991
:100FB0004C69D56114620378DB091370D17DF9B1F6
:100FC000037803F07F0393700023537013789BB171
:100FD00043789B0103F4FE53817843EA91039380A5
:100FE0008378DB0003F01803C17843EA511393714F
:100FF000C37803F01F03D37100235362F0BC704722
:101000000178C1F380119170017801F03F01D17036
:1010100043B1437813F0800F02D008235370D5E713
:101020000423FBE704235370D0E770B50C461E463B
:1010300003788BB104252A44A26000F10C032360DD
:10104000836A6360204605F061FA024610B923699D
:101050001D443560104670BD0125ECE72DE9F041D7
:101060008EB00D4616461C46804600282DD0002D19
:1010700033D0002C39D0636A0233059304F10C009D
:10108000A378002B39D00121627801AF3B46082AB2
:1010900014BF0022012204F0CFFD0697CDF81C807A
:1010A000B2B2ADF820200B9515440C9563788DF8FD
:1010B0003430237B022B22D00023ADF8283005A842
:1010C00004F0B2FD0EB0BDE8F0817846144B1B6809
:1010D0000BB19847CBE700DEC9E77846104B1B6899
:1010E0000BB19847C5E700DEC3E778460C4B1B6899
:1010F0000BB19847BFE700DEBDE70221C4E72369D3
:101100002BB1236909931023ADF82830D7E778462F
:10111000034B1B680BB19847F3E700DEF1E700BF14
:10112000983400202DE9F04186B004460D46C37D79
:10113000002B43D0082605FB06F8E3799D423FD0FB
:10114000A5716B46324601A92046FFF76EFF0746A0
:1011500070BB4DB994F84F3033B9A369C3F30C0396
:10116000A380012384F84F30E37DA3B994F84E3077
:101170008BB925B17846164B1B6833B39847B4F842
:101180004610627823468A1AA16E0846FFF766FF6A
:10119000012384F84E3005992046FFF78DFDA16E9E
:1011A00032464144009811F0B3FC01A805F0D8F98B
:1011B000B7FA87F0400906B0BDE8F0810C26BAE71F
:1011C000B4F84660A6EB0806BAE700DED7E700BF32
:1011D0009834002070B5054690F84C40002601E098
:1011E0000134E4B2EB799C420ED8AA6C0123A340EF
:1011F0001A42F5D121462846FFF794FF20B1013667
:10120000631C85F84C30EBE7304670BDF0B587B015
:1012100044781444C37D33B10B23A34205D209247F
:10122000204607B0F0BD0F23F7E716460F460546E8
:101230006B46224601A9FFF7F8FE04460028EFD1CD
:1012400005992846FFF738FDEB7D43B13246394614
:10125000009811F05DFC01A805F082F9E0E72B464B
:10126000324600993846FFF7F9FEF4E710B5044618
:1012700090F84430012B04D078460E4B1B687BB1AC
:101280009847237B012B0DD00B4BDB68A36303F046
:10129000A1FEA16B014404F12C0003F0F3FD10BD8D
:1012A00000DEEEE7A37D044AD168126902FB031356
:1012B000A363ECE7983400201820002038B5002400
:1012C00000E00134032C13D86C230A4A03FB0423E7
:1012D00093F84430012BF4D16C2505FB04252846F6
:1012E000FFF778FF0028ECD02846FFF7BFFFE8E7BC
:1012F00038BD00BF3020002038B5044690F8443097
:10130000022B04D07846084B1B6853B19847074B13
:101310001D6803F05FFE291804F12C0003F0B2FDF4
:1013200038BD00DEF3E700BF98340020182000200D
:1013300038B5044690F84430022B04D078460B4B65
:101340001B688BB198470A4B5D7D5A689B6803FB0D
:10135000052503F03FFE411904F14C0003F092FD16
:10136000012384F8643038BD00DEECE798340020B7
:101370001820002010B504460C4B1B68806E98475F
:101380000023A36604F12C0003F046FD94F84430DA
:10139000022B05D0002084F8440002F019FD10BD96
:1013A00004F14C0003F038FDF4E700BFD01F00202B
:1013B00010B590B0044690F84430012B05D0784623
:1013C0001A4B1B68002B2FD0984701238DF814303F
:1013D000236D069305A801F0D1F82046FFF7CAFF58
:1013E0000B238DF80C3000238DF80D308DF80E3066
:1013F000049303A8FFF7B4FBA0B10D4B1B6813F0D7
:10140000200F0FD00B4B1B68012B0BDD0A4BD3F8C1
:1014100004350190094A00924FF4E1720849022014
:1014200005F010FC10B010BD00DECEE798340020AF
:10143000001A0020FC19002000B000409832030080
:101440008C32030030B585B00D460446002859D0D3
:1014500008238DF808308DF8095000238DF80A30E4
:10146000039302A8FFF77CFBA0B1334B1B6813F07A
:10147000200F0FD0314B1B68012B0BDD304BD3F805
:10148000043501902F4A009240F2AB122E490220FF
:1014900005F0D8FB23782BB978462C4B1B68002B22
:1014A00038D0984700238DF80830E36903F0010332
:1014B0008DF80930A38AADF80A30A188A069FFF73A
:1014C000EFFB0390224A1368591C116003F00702D6
:1014D000204B03EBC20304AA12E9030083E80300D4
:1014E0002946206DFFF72CFD2046FFF743FF124BE6
:1014F0001B6813F0040F03D0104B1B68032B0BDC8D
:1015000005B030BD7846114B1B680BB198479FE77B
:1015100000DE9DE700DEC5E7094BD3F8043594F8FB
:10152000442001920C4A009240F2B1120649042074
:1015300005F088FBE4E700BF001A0020FC1900203A
:1015400000B00040983203008C3203009834002031
:1015500014200020D41F00204432030008B50846A0
:101560000021FFF76FFF08BD10B50C4691F844301D
:10157000012B04D078460F4B1B6853B1984794F861
:101580004D306BB9237B012B05D02046FFF710FFB0
:1015900010BD00DEF3E700212046FFF753FF10BD2A
:1015A000013B84F84D30002384F84C302046FFF78F
:1015B00011FE10BD98340020062900D07047F0B508
:1015C00085B00E4604460178890101F4FE51407849
:1015D000A578E3781B0443EA0563257943EA0523EC
:1015E00065791D4341EA9001D089FFF7BBFB0746AF
:1015F00018B190F84430012B15D02F4B1B6813F015
:10160000040F0ED02D4B1B68012B0ADD2C4BD3F899
:1016100004352C4A009240F2B2422B49022005F0D8
:1016200011FB05B0F0BD06238DF8083000238DF8BE
:1016300009308DF80A60039402A8FFF791FAA0B16F
:101640001D4B1B6813F0200F0FD01C4B1B68012B88
:101650000BDD1B4BD3F8043501901C4A009240F27D
:10166000B6421949022005F0EDFABC6C2C43BC646B
:10167000BDB13B7823B97846154B1B68B3B1984789
:10168000FB795A1C01239340013B9C4210D000235C
:1016900087F84C303846FFF79DFD3846FFF7E6FDEA
:1016A000BFE703213846FFF7CDFEBAE700DEE7E7E4
:1016B0003846FFF77DFEB4E7001A0020FC19002031
:1016C00000B00040DC3203008C320300983203008B
:1016D000983400202DE9F04389B080460F46144627
:1016E0001E4695780DB32846FFF7DCFB8146C8B14E
:1016F0008DF80050236A0693A38AADF80E3004AB30
:1017000004F10C0292E8030083E80300A37D8DF846
:101710001C30CDF80480029723788DF80C303146C8
:101720006846C84709B0BDE8F083FFF745FFF9E711
:101730002DE9F04104460D4616461F46531EDBB206
:10174000012B05D97846344B1B68002B49D09847AC
:10175000A36E2BB17846304B1B68002B43D09847C3
:101760002E4B1B6838469847A066002850D02B4661
:10177000224605F12001D3F80080D3F804C0D3F845
:1017800008E0D868C2F80080C2F804C0C2F808E0D7
:10179000D060103310328B42EDD1186859689B68C5
:1017A0001060516093600023A364A4F84670A98878
:1017B000A869FFF775FAA061012E16D0184BA36235
:1017C000002384F86430174B6365E465164B63634C
:1017D000E463012002F0FCFA84F844600120BDE8D3
:1017E000F08100DEB4E700DEBAE7104B1B7D84F821
:1017F0004D30002384F84E3084F84F3084F84C305C
:10180000AB6A2365064BA362094B6363E463E0E7BD
:101810000020BDE8F08100BF98340020C81F0020E0
:101820005EE6655E612402005D150200182000205E
:101830006915020000B585B000238DF80F3098B10E
:101840000346084602330B600DF10F0104F0F0F976
:101850009DF80F3043B10D4B1B6813F0040F03D0FC
:101860000B4B1B68032B04DC9DF80F0005B05DF8E3
:1018700004FB084BD3F80435074A009240F2F222E9
:101880000649042005F0DEF9EEE700BF001A00204B
:10189000FC19002000B000403C3303008C320300F0
:1018A0002DE9F0438FB004460E4615461F46D0F88A
:1018B0001890037823B181884846FFF7F1F9A061B9
:1018C00004F10C00A378002B3AD0012162780DF1CD
:1018D00028084346082A14BF0022012204F0ACF96C
:1018E000C4F81890CDF8088003966378EA1A92B28B
:1018F000ADF810203244089207978DF82430002369
:10190000ADF81830237B022B1CD0A3786BB3237B5C
:10191000022B1BD02546002345F8243F2A46E178B8
:10192000206A0BF041FC606A98B101A9FFF782FFC1
:1019300000283CD12A46E178206A0BF035FCF2E71A
:101940000221C3E71023ADF81830DEE723690593C1
:10195000E0E7237B022B2ED104F10C01E0890BF090
:10196000EDFC0028D3D1052022E000236362237B15
:10197000012B0DD02146002341F8243FA08A0BF013
:101980003BFC01A9606AFFF755FF70B905200FE025
:1019900004F12401E0890BF02FFC01A9606AFFF734
:1019A00049FF0028E6D0002002E0002000E00020EF
:1019B0000FB0BDE8F0830520FAE70000F0B5F1B004
:1019C00006460D4614461F4610AB0A460146204601
:1019D000FFF766FF00282FD0454B1B6813F0040F5C
:1019E00003D0444B1B68052B74DC03238DF81430A3
:1019F000A378002B7AD000238DF815308DF816507F
:101A0000069605A8FFF7ACF8002861D0384B1B6894
:101A100013F0200F5CD0374B1B68012B58DD364B81
:101A2000D3F804350190354A009240F227523449E8
:101A3000022005F007F94BE001238DF81430002354
:101A40008DF815306378EB1A8DF81630069605A8D8
:101A5000FFF786F8A0B1264B1B6813F0200F0FD0BC
:101A6000244B1B68012B0BDD234BD3F8043501906D
:101A7000224A009240F20E522149022005F0E2F87B
:101A800003AB01228DF80C20A28AADF80E200022B3
:101A900004928DF8142010AA06926278AD1AADF85F
:101AA0001C5008AA93E8030082E803000AAB04F183
:101AB0000C0292E8030083E80300A37D8DF8383020
:101AC000236A0C93636A0D930F9705A800F056FDE7
:101AD00071B0F0BD084BD3F804350A4A009240F2C9
:101AE00021520749062005F0ADF87EE7022383E77F
:101AF000001A0020FC19002000B0004098320300BA
:101B00008C3203006033030010B5D47D14B9FFF7A5
:101B100055FF10BDFFF7DEFD10BD00002DE9F043BD
:101B200085B004AF43781344C47D44B14FF480744E
:101B30009C4207D209200437BD46BDE8F0834FF42C
:101B4000C074F5E7EFF3108E72B60024032C0DDCA1
:101B50006C25414E05FB046595F844500DB10134E8
:101B6000F4E76C263C4D06FB045400E00024BEF173
:101B7000000F00D162B6002C6CD015460E4601460F
:101B800001222046FFF7D4FD08B90420D3E72A46F6
:101B90003146A06E10F0BCFF304B1B6813F0040FF1
:101BA00003D02F4B1B68032B10DC2C4B1B6813F04E
:101BB000040F03D02A4B1B68032B13DC2046FFF7CE
:101BC00009FB2046FFF752FB0020B4E7254BD3F872
:101BD0000435254A009240F2EB322449042005F0F6
:101BE00031F8E2E76D46B4F846C04FEA4C030833DB
:101BF00023F00703ADEB030D0DF11008C6460023DB
:101C000012E0A26ED25C59004FEA12191848066819
:101C100016F809600EF81360013102F00F02006837
:101C2000825C0EF8012001336345EAD3002308F8F3
:101C30001C300C4BD3F80435CDF808800D4A0192C6
:101C40000D4A00924FF47C720849042004F0FAFF18
:101C5000AD46B3E704206EE730200020001A0020D4
:101C6000FC19002000B000400C3303008C3203004C
:101C7000041A002030330300702E030070B50446B0
:101C80000D461646808A02F00DFC012801D0102076
:101C900070BD237B0BB9102070BD022B0BD094F9C3
:101CA0001630002B12DB237853B9324629462046E2
:101CB000FFF7ACFA70BD2369002BF0D1102070BD86
:101CC000324629462046FFF729FF70BD072070BD28
:101CD00010B582B00446037823B97846144B1B68CC
:101CE0001BB3984701238DF80030E36903F001032B
:101CF0008DF80130A38AADF80230A188A069FEF703
:101D0000CFFF01900B4A1368591C116003F00702C2
:101D1000094B03EBC20302AA12E9030083E80300A4
:101D20002046FFF727FB02B010BD00DEDAE700BF58
:101D30009834002014200020D41F002008B5064944
:101D4000064800F04DF830B17846054B1B680BB1E2
:101D5000984708BD00DE08BDD129030039290300DA
:101D60009834002010B5FFF7E9FF4FF4D872002136
:101D7000114810F0F7FE06F0DBFA00240F4B1C6050
:101D80000F4B104A1A60104A5A604CF250329A6057
:101D90000E49D9601A6104221A759C7508225A7579
:101DA0000B4803F011FE0B4B18600B4B1C600B48EB
:101DB00006F018FC10BD00BF3020002014200020C9
:101DC0001820002080969800F049020020A107000A
:101DD00031200200CC1F0020BC1F0020690F020030
:101DE00008B50346B0FA80F040090A46B1FA81F11D
:101DF0004909884201D00E2008BD4BB1EFF3108095
:101E000072B607490B60074B1A6038B962B608BD55
:101E1000002AF3D1FFF792FF002008BD002008BD83
:101E2000C81F0020D01F002098B110B58CB0044608
:101E3000C36883B1836983B1436983B1014601A853
:101E4000FEF7BAFF228AE16801A8FFF717FF0CB07E
:101E500010BD0E2070470E20F9E70E20F7E70E2088
:101E6000F5E7E8B110B58CB004464068D0B1A06980
:101E7000D8B1227C022A1AD00AB9102013E094F9B2
:101E80000020002A01DA07200DE00A46214601A8B9
:101E9000FEF7DAFFA268616801A8FFF7EFFE02E033
:101EA0000E2070470E200CB010BD0E20FBE7102056
:101EB000F9E7000010B58EB0037B012B03D000249E
:101EC00020460EB010BD00228388C3F386148DF81F
:101ED00008409B008DF809300B0E8DF80A300B0C72
:101EE0008DF80B300B0A8DF80C308DF80D10062391
:101EF000089301238DF82830838AADF82A300B929D
:101F00008DF8182002AB0793036A0C938DF82420F8
:101F1000C389ADF82630837D002B2ED18DF8342077
:101F2000184906A8FFF79DFF04460028C8D10723DB
:101F30008DF8103000238DF8113006238DF8123003
:101F400002AB059304A8FEF70BFE0028B8D00E4B99
:101F50001B6813F0200FB3D00C4B1B68012BAFDDB7
:101F60000B4BD3F8043501900A4A009240F23F220D
:101F70000949022004F066FEA2E7084B5B7D8DF85C
:101F80003430CDE75EE6655E001A0020FC190020C3
:101F900000B00040983203008C320300182000206B
:101FA00038B500240CE000DE6C231F4A03FB042339
:101FB000DB795A1C01239340013B9D422BD0013415
:101FC000032C2FD86C23184A03FB042393F84430C6
:101FD000022BF4D16C2303FB042393F86430022B0F
:101FE000EDD16C2000FB0420816CFFF763FF00281B
:101FF000E5D10D4A6C2303FB04F3D11881F864008A
:102000008D6CD35C002BCFD17846084B1B68002B1E
:10201000C9D09847C8E76C20034B00FB0430FFF79A
:1020200057FECCE738BD00BF302000209834002098
:1020300008B5FFF743F9FFF7B3FF012008BD000023
:10204000F0B583B007460D46CC790134CB7DF3B1B2
:10205000082204FB02F4E3B14FF48073A3421BD2C5
:10206000214B1B6813F0040F37D0204B1B68002B4B
:1020700037DD1F4BD3F8043501941E4A00924FF40C
:1020800013721D49012004F0DDFD002626E00C221C
:10209000DFE74FF4C073E1E7E96901F00101A88AC5
:1020A00006F0F4F8064680B9E969002201F0010162
:1020B000A88AFEF729FF8EB900213846FFF7FAFEFD
:1020C00002210020FEF73CFF08E0234602222946B9
:1020D0003846FFF72DFB0646EDE70026304603B0F5
:1020E000F0BD0026FAE700BF001A0020FC1900200E
:1020F00000B00040C83203008C32030038B50546FA
:102100008188808AFEF72EFE044610B190F8443094
:102110000BB1204638BD2946FFF792FF0028F8D1C1
:102120000024F6E72DE9F04383B081460F461446BC
:102130009846137823B978466D4B1B6853B198477E
:10214000E56905F00105A68AA188A069FEF7A8FD4A
:10215000002302E000DEF3E70133072B1DD8654AB8
:102160001268934216D2644A02EBC302526890424C
:10217000F2D1614A02EBC30252889642ECD15E4A28
:1021800002EBC30252789542E6D15B4A12F8333033
:10219000012204E000231A4601E000231A46B2B1EE
:1021A00073B1237823B97846514B1B6833B19847F4
:1021B000E1794B1C01219940013902E000DEF7E78B
:1021C00000212046FFF776FE03B0BDE8F0832046ED
:1021D000FFF794FF054668B3A26983699A42F3D377
:1021E000E269C3699A42EFD1444B1B6813F0040FB4
:1021F00003D0434B1B68032B20DC2846FFF77CF8F9
:102200002B7B012B28D0AA6CA17901238B401A4289
:10221000DAD11343AB64A279EB799A4224D0E37DFF
:10222000002B5ED00823BB4227D004212846FFF7AD
:1022300009F9C9E70221FEF783FEC5E7314BD3F860
:102240000435A2790192304A009240F2B1222F491E
:10225000042004F0F7FCD0E795F86430002BD2D1CD
:102260002846FFF765F8CEE79BB2E27D002A36D01C
:10227000082202FB0373A5F84630A86EA679E37D19
:102280008BB308233A46494606FB030010F040FC96
:10229000AC6C2B7823B97846154B1B682BB3984749
:1022A000EB795A1C01239340013B9C428CD143465D
:1022B0002A46B5F84610A86EFFF726FC022385F8DB
:1022C0006430A96C2846FFF7F5FD00287FF47CAF49
:1022D000002385F864302846FFF7FAFC74E70C22E7
:1022E000C7E70C239FE70C23CCE700DED8E700BF4D
:1022F0009834002014200020D41F0020001A002051
:10230000FC19002000B00040503303008C32030061
:102310002DE9F04192B0002800F090800746002A95
:1023200000F08E80984614460E46002310931193B9
:1023300010A950880BF002F818BB03238DF80C305D
:1023400004238DF80D308DF80E60049703A8FEF776
:1023500007FCA0B13D4B1B6813F0200F0FD03C4B86
:102360001B68012B0BDD3B4BD3F8043501903A4A37
:10237000009240F2D6523949022004F063FC002555
:102380005FE0226902F00102E168208905F09AFF0E
:1023900018B303238DF80C3005238DF80D308DF81C
:1023A0000E60049703A8FEF7DBFBA0B1274B1B6868
:1023B00013F0200F0FD0264B1B68012B0BDD254B94
:1023C000D3F804350190244A009240F2E1522349A7
:1023D000022004F037FC002533E0226902F00102FC
:1023E000E168208905F018FF0546C0B905AA214615
:1023F0003846FEF7D3FD08AB12AA12E9030083E8C2
:10240000030003F095FA9DF8143083B1434605AA02
:10241000311F381DFFF786FE03F0B0FA11E0216985
:10242000002201F001012089FEF76EFD09E043461C
:1024300005AA711E781CFFF767FBEDE70E2500E08B
:102440000E25284612B0BDE8F08100BF001A00201A
:10245000FC19002000B00040983203008C320300C9
:1024600010B50C4691F84430022B04D07846094B45
:102470001B6863B19847022384F86430A16C20463E
:10248000FFF718FD10B9002384F8643010BD00DE9A
:10249000F1E700BF98340020002934D000220A6000
:1024A0004A60A0F5967007282FD8DFE800F00409ED
:1024B0000E13181D2227164A12684A600020704722
:1024C000134A52684A6000207047114A92684A6075
:1024D000002070470E4AD2684A60002070470C4ABC
:1024E00012694A6000207047094A127D4A60002044
:1024F0007047074A527D4A6000207047044A927D27
:102500004A60002070470E2070470520704700BFCA
:1025100018200020F8B518B30546164B1F6817B1F0
:1025200004273846F8BD0E463C46B4420ED205EBB1
:10253000C4035B68B3B115F8340010F0800F13D1F9
:10254000A0B1FEF7AFFC98B90134EEE70A4B43F8AF
:10255000375003EBC7035E607B1C064A1360E0E75D
:102560000E27DEE70E27DCE70B27DAE70F27D8E791
:102570000F27D6E7BC1F0020C01F002038B5054636
:1025800018B10A4B1C686CB938BD7846084B1B68FB
:102590000BB19847F5E700DEF3E754F8043C284612
:1025A00098472468002CF8D138BD00BFE0210020F6
:1025B0009834002010B5044620B1211D054804F0D0
:1025C0004FFA10BD7846044B1B680BB19847F4E7EF
:1025D00000DEF2E7E02100209834002010B5044628
:1025E00020B1211D054804F079FA10BD7846044B4E
:1025F0001B680BB19847F4E700DEF2E7E02100200A
:102600009834002008B503881A4492B202808A42A6
:1026100008D00388994209D87846054B1B6823B136
:10262000984708BD00230380F3E700DE08BD00BF24
:102630009834002038B504460D46836882881344D8
:102640008B4204D078460F4B1B68B3B198472A8859
:102650000432204692B230F8041BFFF7D3FF2388E0
:10266000A2889B1A9BB2042B04D87846054B1B68A2
:102670002BB198470023AB7038BD00DEE7E700DEE2
:10268000F8E700BF983400200B88194404318268B1
:1026900003881344994201D0084670471146FBE76E
:1026A00038B504460D46FFF7EFFFEFF3108172B621
:1026B000A26863881344984204D001B962B6042327
:1026C000AB7038BDAA1A628001B962B60023AB7044
:1026D00038BD83681944887870470088043880B210
:1026E0007047000010B50B88934210D99B1A9BB21B
:1026F00044884CB90488E31A43800A80428883687E
:10270000134400229A7010BDE31A4380F5E7934208
:1027100006D07846034B1B680BB1984710BD00DE0E
:1027200010BD00BF9834002038B504464388826845
:10273000D518D1520123AB700A1D92B230F8021B9A
:10274000FFF760FF6288A3889A4203D0A36813440E
:1027500000229A70284638BD70B51646091A8DB207
:1027600014880434A4B2A54204D27846064B1B68F0
:102770003BB198472C1BA4B2042C01D8043D3580F2
:1027800070BD00DEF6E700BF9834002083888B42DE
:1027900001D20420704710B4428881688C180388E5
:1027A0009B1A9BB2043B8B520423A37000234380EB
:1027B00018465DF8044B704738B504460D468188CD
:1027C000FFF787FF08B1042038BD238862889B1A71
:1027D000AB4201DB002038BD29462046FFF7D6FF7B
:1027E00038BD08B5038842889B1A8B4201DB002064
:1027F00008BDFFF7CBFF08BD838842889B1A8B4238
:1028000001DA042070470020704770B504460E4678
:102810000988043189B2428883889A420FD09A424B
:1028200011D8FFF7E9FF05463DB96088A1888842C5
:1028300000D321883246FFF78FFF284670BDFFF78F
:10284000BBFF0546F0E7FFF7CCFF0546ECE710B508
:1028500004468088A168014405E02046FFF7EAFEAF
:10286000A088A16801448B78042BF6D0084610BDDF
:1028700070B5064615460C4600294FD0002E55D09F
:10288000B4F1005F08D94FF08053D3F80C3103F551
:102890000023B4EB832F11D3B4F5000F08D94FF008
:1028A0008053D3F80C3103F50053B4EB832F05D3D9
:1028B0007846254B1B68002B40D098476B1E23445D
:1028C000B3F1005F08D94FF08052D2F80C2102F525
:1028D0000022B3EB822F11D3B3F5000F08D94FF0CC
:1028E0008052D2F80C2102F50052B3EB822F05D3AF
:1028F0007846154B1B68002B22D09847042D04D82E
:102900007846114B1B68EBB19847358000237380E4
:10291000B380B460043D2580A37070BD78460A4B37
:102920001B680BB19847A9E700DEA7E77846064B7E
:102930001B680BB19847A3E700DEA1E700DEBDE707
:1029400000DEDBE700DEE0E79834002070B50446E7
:102950008088A1680144EFF3108672B68D78032D4C
:102960000AD12046FFF790FE014605E004238B7054
:102970002046FFF789FE01468B78012B05D0A3681E
:10298000CB1A9BB262889A42F0D1032D02D0204626
:10299000FFF75DFF06B962B670BD0000F0B583B009
:1029A0000D46ADF80620064638B175B1BDF80640B3
:1029B0009CB90924204603B0F0BD7846174B1B682C
:1029C0000BB19847F1E700DEEFE77846134B1B6841
:1029D0000BB19847EAE700DEE8E73046FFF77DFEF7
:1029E000844201D90924E5E7E31C9BB223F00303E9
:1029F00002A921F8023DEFF3108772B63046FFF7C7
:102A000004FF044618B1002FD4D162B6D2E7BDF856
:102A100006103046FFF788FE2860F4E7983400205F
:102A200070B582B00C46ADF80620054600283CD0B3
:102A3000002C42D0A378012B05D078462E4B1B6882
:102A4000002B42D098472288BDF806309A4205D222
:102A50007846294B1B68002B39D09847BDF80630C3
:102A60002BB97846244B1B68002B32D09847BDF811
:102A7000063003339BB223F003039BB2ADF806305C
:102A8000228893420DD021462846FFF7FDFDEFF343
:102A9000108672B6AA686B88134498421BD006B998
:102AA00062B60223A37002B070BD7846124B1B6859
:102AB0000BB19847BCE700DEBAE778460E4B1B68BF
:102AC0000BB19847B6E700DEB4E700DEBBE700DEF7
:102AD000C4E700DECBE7A01A80B2A988814200D803
:102AE00029880DF10602FFF737FEBDF806202146C2
:102AF0002846FFF7F7FDD2E79834002038B50C469A
:102B0000054650B18CB12846FFF7A1FE8378022B11
:102B100013D0032B16D0052038BD78460E4B1B680A
:102B20000BB19847EEE700DEECE778460A4B1B68EE
:102B30000BB19847E7E700DEE5E7032383702060E9
:102B4000002038BD7846044B1B6813B1984700201D
:102B500038BD00DE002038BD9834002010B5044692
:102B600038B12046FFF773FE8378022B09D000208E
:102B700010BD7846044B1B680BB19847F1E700DEA7
:102B8000EFE7012010BD00BF9834002038B505469E
:102B9000D0B12846FFF75BFE04468078022814BFB8
:102BA0000020012021468B78033BDBB2012B0AD8A1
:102BB0002846FFF769FD01468078022814BF0020EF
:102BC00001208C42EFD138BD7846034B1B680BB116
:102BD0009847DEE700DEDCE79834002038B50C4685
:102BE000054650B18CB1A378012B16D0032B19D117
:102BF00021462846FFF71EFD38BD78460D4B1B6861
:102C00000BB19847EEE700DEECE77846094B1B680E
:102C10000BB19847E7E700DEE5E721462846FFF7D6
:102C20003FFD38BD7846034B1B680BB1984738BD54
:102C300000DE38BD9834002008B50023092B09D8E0
:102C4000084A52F82320824201D00133F6E7064AAF
:102C5000536008BD7846054B1B680BB1984708BD0B
:102C600000DE08BDD4330300E421002098340020A6
:102C700008B5064B986800221A605A609A60DA60BC
:102C80001A615A619A6105F08DF808BDE4210020AF
:102C900010B5294BDB688BB1274B1B7E23B17846DF
:102CA000264B1B6893B19847234B5B68092B1DD9B2
:102CB0007846224B1B685BB1984717E078461F4B5C
:102CC0001B680BB19847E7E700DEE5E700DEEBE7BE
:102CD00000DE0BE000DE02E00022174B5A60012C00
:102CE00001D0032C26D1144B1B7E1BBB124B5A6800
:102CF000134B53F8223098470446022810D003287B
:102D0000EAD00128EBD10C4A536801335360092BF8
:102D1000E5D97846094B1B68002BDBD09847DEE7E6
:102D2000054B1B7E1BB10222034B1A70D7E7FFF73E
:102D30009FFFD4E710BD00BFE4210020983400209D
:102D4000D4330300104B1B681B685A1E12F1030F8B
:102D500018D8C3F30B020AB10020704710B50B4A14
:102D6000D3600023137653760124147093600848CF
:102D7000FFF762FF0749204601F0B6FAFFF788FF28
:102D8000204610BD0020704704220020E4210020CE
:102D9000D52D0200992D020008B50B78032B06D023
:102DA0000B4B1B78012B06D0022B0BD008BD002249
:102DB000074B1A76F4E7064B1B7E002BF6D1FFF784
:102DC00067FF08BD0B78032BF0D1FFF751FFEDE74C
:102DD000E421002000B585B00A4BDB6802228DF8A3
:102DE000002001934FF480530293074A6946012063
:102DF00001F090FA18B1002005B05DF804FB012045
:102E0000FAE700BFE42100200022002000B585B0D1
:102E10000A4B1B6802228DF8002001934FF4805367
:102E20000293074A6946012001F074FA18B10020A4
:102E300005B05DF804FB0120FAE700BF0422002082
:102E400000220020154BDA68137951795B1A03F5DB
:102E50007F2303F6FF731B0305D002F580520F4B4F
:102E6000DA600320704700B585B00D4B1B68012068
:102E70008DF8000001930B4B0393042302930A4A3D
:102E8000694601F047FA30B90122044B1A76022054
:102E900005B05DF804FB0020FAE700BFE421002044
:102EA00004220020082200200022002000B585B066
:102EB0000C4BDA680C4B1B68043301208DF80000C2
:102EC0000192039340F6FC730293084A694601F0AD
:102ED00021FA28B90120034B187605B05DF804FBF0
:102EE0000020FAE7E4210020042200200022002034
:102EF00000B585B00A4B1B6801208DF800000193D6
:102F0000084B039304230293074A694601F002FA2F
:102F100018B1002005B05DF804FB0120FAE700BFFE
:102F200004220020F02100200022002010B584B0EF
:102F3000114BDA681478114B1B68043301208DF8AB
:102F400000000193039202940D4A694601F0E2F9F0
:102F500080B90A4B1B6804F0FC041C440434064B83
:102F60005C61D9680A780A441A6100225A76012005
:102F700004B010BD0020FBE7E42100200422002063
:102F80000022002000B585B0174BDB6818784FF69B
:102F9000FF7203F58051184405F0D4FAF0B10246EF
:102FA000114BD9680B780B44984219D00E4B5B7EBD
:102FB00093B10E4B01208DF800000192039304237E
:102FC00002930B4A694601F0A5F958B90120064B56
:102FD000187605B05DF804FB064BEBE70120F8E737
:102FE0000120F6E70020F4E7E42100208835030003
:102FF000002200208435030008B50F4BDB681878E9
:10300000002203F58051184405F09CFA08B1012014
:1030100008BD094BDA68137951795B1A03F57F23F0
:1030200003F6FF731B0305D002F58052024BDA60F2
:10303000032008BD022008BDE421002070B584B043
:103040004F4BDD686B792A79511E8B4200F09380DB
:1030500005F580510C780C444A490968081D0E7921
:103060000644D31A03F57F2303F6FF731B0303F50E
:1030700080531D446388013B9BB247F6FE62934236
:103080001AD858E0002456E000DE238804EB8303BE
:1030900023F47F6222F00F02934217D06288B2F5C8
:1030A000FE4F13D09D42EDD95A88013A92B21C4688
:1030B00047F6FE618A423ED92388002BE5D1784647
:1030C000314B1B68002BDFD09847DEE724F47F6389
:1030D00023F00F0303F580531A781344E2E700DE70
:1030E000238804EB830323F47F6222F00F029342D0
:1030F00017D06288B2F5FE4F13D09D421AD95A8874
:10310000013A92B21C4647F6FE618A4213D92388DF
:10311000002BE5D178461C4B1B68002BDFD098476D
:10312000DEE724F47F6323F00F0303F580531A785E
:103130001344E2E70024DCB1124B1968628801F500
:103140008051304605F0FEF90646B0B101200C4B27
:1031500018768DF8000001940C4B0393042302931E
:103160000B4A694601F0D6F80028D0D0002000E0D4
:10317000012004B070BD0120FBE70120F9E700BF8A
:10318000E421002004220020983400208035030030
:1031900000220020F0B587B0714B1B6923B1704B42
:1031A0005B694BB100274CE078466E4B1B680BB156
:1031B0009847F4E700DEF2E778466A4B1B680BB1EC
:1031C0009847EFE700DEEDE700DE238804EB83039A
:1031D00023F47F6222F00F02934217D06288B2F587
:1031E000FE4F13D09D421AD95A88013A92B21C461A
:1031F00047F6FE618A4213D92388002BE5D1784631
:10320000584B1B68002BDFD09847DEE724F47F641F
:1032100024F00F0404F5805423782344E2E70024CB
:10322000002C35D100230093019B002B6CD101278A
:10323000002C00F08C80628847F6FF739A4200F001
:103240008680474B5B7E002B40F08780002F40F04C
:103250008280434B5A6922F47F6626F00F06B61A25
:1032600006F580561C69DD682B796A799B1A03F58F
:103270007F2303F6FF731B0303F580531D440023D4
:1032800001936388013B9BB247F6FE629342B3D839
:1032900000940EE000DE238804EB830323F47F62B6
:1032A00022F00F02934226D06288B2F5FE4F22D060
:1032B0001C46A542B8D92388019A02EB83029642A4
:1032C000B2D9009B634023F47F6323F00F03002BEC
:1032D000AAD16388013B9BB247F6FE618B42A3D81B
:1032E00001922388002BD6D178461E4B1B68002BF9
:1032F000D0D09847CFE724F47F6424F00F0404F57E
:10330000805423782344D3E7154A526901208DF86D
:1033100008000392009A05920493134A02A900F050
:10332000F9FF90B90E49019B23F003024B69134446
:103330004B6114B10A4B1C617AE77846094B1B6854
:103340000BB19847F6E700DEF4E7002006E0012223
:10335000034B5A7675E7012000E0012007B0F0BD6D
:10336000E4210020983400200022002008B54FF00E
:1033700010235B69B3F1FF3F03D04FF010235B696B
:1033800063B94FF080525169136903FB01F3A3F550
:103390008053054A1360FFF7D5FC08BD4FF010239A
:1033A0005B69A3F58053F2E704220020024B1878F2
:1033B000003018BF01207047E421002010B584B010
:1033C0000446244B1B782BB17846234B1B68002BFB
:1033D0003BD098472378032B05D078461E4B1B68BB
:1033E000002B34D098471B4B9C60E268DA600024C5
:1033F0005C601C76012018705C76184900F074FF40
:10340000FFF746FC0A238DF808308DF809408DF847
:103410000A40039402A8FDF7A3FBA0B1104B1B6860
:1034200013F0200F0FD00F4B1B68012B0BDD0E4B41
:10343000D3F8043501900D4A00924FF420720C49E4
:10344000022003F0FFFB04B010BD00DEC2E700DE87
:10345000C9E700BFE421002098340020992D020024
:10346000001A0020FC19002000B000409832030030
:10347000BC330300014B1868704700BF04220020D2
:1034800010B50446B8B163681BB123680BB1A368DB
:1034900023B978460E4B1B68ABB19847A3685A1EF8
:1034A000134204D078460A4B1B6873B19847002337
:1034B000E360236110BD7846054B1B680BB198474C
:1034C000E1E700DEDFE700DEE8E700DEEFE700BF70
:1034D00098340020F8B510B3044611B3826812B9CD
:1034E00009252846F8BDEFF3108572B60269806899
:1034F0000244E668B2420ED0276863680138304063
:103500001A4600FB03700FF003FBE3680133E3602E
:103510005DB962B6E5E735B962B60425E1E70E2587
:10352000DFE70E25DDE70425DBE70025D9E770B5E9
:1035300008B30446826812B90925284670BDEFF326
:10354000108572B60669C268964210D00846216896
:103550006268A368013B1E4006FB021108B10FF030
:10356000D7FA2369013323614DB962B6E5E725B97E
:1035700062B60525E1E70E25DFE70525DDE7002535
:10358000DBE70000C0F30B030BB11020704709B953
:103590000920704701F6FF71090B0222104BC3F896
:1035A00004250F4BD3F80034002BFAD000220AE098
:1035B0000B4BC3F808050A4BD3F80034002BFAD0A4
:1035C00000F5805001328A42F2D30022044BC3F846
:1035D0000425034BD3F80034002BFAD000207047A9
:1035E00000E0014010F0030F02D01023184670478E
:1035F00011F0030F01D01023F8E70AB90923F5E70A
:1036000012F0030F01D00923F0E710B4930801244E
:10361000124AC2F80445114AD2F80024002AFAD00E
:1036200002E00430043113465A1E53B10B68B3F163
:10363000FF3FF6D00360094BD3F80034002BFAD0DB
:10364000EFE70021054AC2F80415044AD2F8002425
:10365000002AFAD018465DF8044B704700E001409C
:10366000064B1B68834202D1002304E0134613B1CA
:103670005A689042FAD11846704700BF0C320020B9
:1036800038B50C4B1B68834207D00446FFF7E8FFB0
:10369000054630B163686B6038BD5A68054B1A60E7
:1036A00038BD7846044B1B680BB19847F2E700DE43
:1036B000F0E700BF0C32002098340020038803316B
:1036C00089B221F0030189B28B4224D0024601D293
:1036D00007207047581A082801D80720704730B4CF
:1036E000EFF3108072B6118001F1080554195B1ACE
:1036F0009BB2083B535300236380538833B953680C
:103700006360546048B962B630BC7047044B1A68B5
:1037100062601C60F6E7002070470020F4E700BFFD
:103720000C3200200180002343804260704700007B
:1037300038B5134C4FF480552A46002120460FF02F
:1037400011FA104B1C600AE0002228212046FFF7E6
:10375000E9FF2388083323446360303D1C46502D25
:10376000F2D8083D04D17846074B1B6833B198471F
:103770000022A9B22046FFF7D5FF38BD00DEF7E7EB
:103780000C2200200C320020983400202DE9F84350
:10379000CE1CB6B226F00306B6B2731E9BB2B3F5CA
:1037A000BE7F03D309231846BDE8F883EFF31089E1
:1037B00072B6434B1D6815B1804600272AE0B9F167
:1037C000000F78D162B60423EDE72046FFF758FFDB
:1037D0003B4B1B689D4216D0BC4206D023882A88EA
:1037E000134408332B80012310E02846FFF738FFED
:1037F00007460028F2D17846324B1B680BB1984738
:10380000ECE700DEEAE70027E8E700230BB92F46E4
:103810006D686DB12B889E420AD91C4608342C4431
:10382000294B9C42F1D26388002BCED00023EDE7D8
:1038300005B32B88254AA2FB0323013E244A82FBC1
:103840000612F617C6EB22160136B6EB531F17D336
:1038500001236B801FB36B687B60B9F1000F00D14F
:1038600062B6174B1B689D421DD00835C8F8005042
:10387000002398E7B9F1000F1FD162B6042392E745
:1038800006EB8606F10089B22846FFF717FF0346CC
:103890000028DDD0B9F1000F85D162B683E76A68F0
:1038A000074B1A60D9E77846064B1B680BB198475F
:1038B000DBE700DED9E7042375E7042373E700BFE5
:1038C0000C320020983400200C320020CDCCCCCC1F
:1038D0006766666670B50446194B984205D203F5D3
:1038E0008053984226D2012300E0012323B9784671
:1038F000144B1B6803B39847A4F10806EFF3108537
:1039000072B634F8063C012B04D078460D4B1B6888
:10391000A3B19847002124F8061C34F8082C20464F
:103920000FF020F9084B1A6844F8042C1E6005B902
:1039300062B670BD0023D9E700DEDDE700DEE9E70F
:103940000C220020983400200C32002010B50446D0
:1039500008B1A04710BD7846034B1B680BB19847D0
:10396000F7E700DEF5E700BF9834002008B508222D
:103970000221084804F054F838B1074A91684160C0
:10398000127B027204F090F808BD044804F0D8F9E4
:1039900008BD00BF1432002050320020D019002092
:1039A0000E4B1B78CBB910B50D4B5C6804F5005479
:1039B000B4F1807F00D910BD04220121094804F030
:1039C0002FF830B1446004F06FF80122034B1A70F5
:1039D000F1E7054804F0B4F910BD704764320020E7
:1039E0005032002014320020C019002000B58DB0E4
:1039F00003908DF808100CA8022300F82C3DFEF768
:103A0000BDFD0DB05DF804FB10B58CB00C469AB945
:103A10004B88012B28D1164B1B7823B97846154BC0
:103A20001B683BB198476268134B5A600022104BE9
:103A30001A7019E000DEF6E7032A04D078460D4B31
:103A40001B689BB198472C22002101A80FF08AF82F
:103A50000E238DF804300394084BDA6805921B6935
:103A6000069301A8FEF78AFD0CB010BD00DEEAE760
:103A7000643200209834002050320020143200209C
:103A800038B504F07FF928B902F050F80028F8D0D2
:103A900020BFF6E701F04CFF002211461A4803F060
:103AA00009FF00252C4605E0051D024600211648A9
:103AB00003F000FF30B14388012BF5D0022BF4D185
:103AC000041DF2E7A4B19DB12268104B9A602279DF
:103AD0001A73AC4201D9237993B12A680B4B1A604F
:103AE0000A4B1A685A60FFF75BFF01F047FF38BDC9
:103AF000064B00221A609A601A73FFF737FFEFE750
:103B00000022024B1A60EBE71432002050320020F2
:103B100008B504F07FF9A0F5805008BD00B587B066
:103B20000023009301930293039304930593FFF7FB
:103B3000EFFF009001230193064B0393694606486B
:103B400004F0B0F810B907B05DF804FB034804F0C6
:103B5000F7F8F8E7093A020014320020E0190020D3
:103B600010B50C4B00241C605C609C60DC601C6128
:103B700001F030FA084B5860084A9A60084ADA6047
:103B80001C615C61074A1470184601F0FFF8FFF7EA
:103B9000C5FF10BD5032002038320020B93C020071
:103BA000008793036532002038B501F0C1FE174B42
:103BB0001B7B23B1082401F0E1FE204638BD134BE6
:103BC0009B7B0BB10824F6E7104B1A8A41F2826303
:103BD0009A4204D80E4B1B782BB1012300E001233D
:103BE0001BB90824E7E70023FAE7084D01232B73EC
:103BF00000242C82AB680133AB60FFF7B7FEA868E6
:103C0000297B0138FFF7F2FED5E700BF50320020D4
:103C10006532002010B501F08BFE244B5B7B9BB11D
:103C2000224B9B7B03BB214B1A8A41F282639A424F
:103C300004D81F4B1B782BB1012300E00123ABB14B
:103C4000012302E00023FAE700231C4643B3174B8D
:103C500000225A731B7B5BB1012B14D07846154BA5
:103C60001B680BB398471BE00023EEE70023ECE74B
:103C7000FFF79AFFA0B178460E4B1B680BB198472F
:103C80000EE000DE0CE0094B002119605960197349
:103C900019829868FFF7AAFEFFF768FEFFF780FE1B
:103CA00001F06CFE204610BD00DEF9E75032002026
:103CB000653200209834002010B5264B1B7B4BB199
:103CC000012B27D07846244B1B68002B3DD098470A
:103CD00001240DE01F4B1A8A41F282639A4204D8F4
:103CE0001E4B1B7883B1012300E0012373B901242B
:103CF0001CB1184A138A01331382164B5B8A13B125
:103D0000013B144A538210BD0023EFE7FFF782FF07
:103D10000024EDE70F4B1A8A41F282639A4204D8DD
:103D20000E4B1B787BB1012300E001231C467BB1C5
:103D300042F2B0139A4203D90122064B5A7300246F
:103D4000FFF768FFD4E70023F0E700DE0124CFE7A8
:103D50000124CDE750320020983400206532002045
:103D600010B5184B1A685B689A4225D20446154B69
:103D70001B7B012B15D0144B934214D9002028B97A
:103D8000104B1A685B68403B9A4212D2EFF31080E6
:103D900072B60C4A1368591C1160236080B962B670
:103DA00010BD0A4BE8E70122064B5A73FFF732FFBA
:103DB000E5E7FFF7F5FDE9E7FFF7F2FD0F2010BD9E
:103DC000002010BD50320020FFFF7F0000E0FF0008
:103DD00008B568B90E4B1B6823B978460D4B1B68B4
:103DE00073B198470A4A1368013B136053B108BD89
:103DF0000122094B9A73064A13680133136008BD08
:103E000000DEEFE70022044B9A73FFF703FFEEE7B3
:103E100010320020983400205032002000B58DB0C0
:103E2000ADF808008DF80A100CA8032300F82C3D0B
:103E3000FEF7A4FB0DB05DF804FB000038B50546A5
:103E40000C4601F075FD254B1B7B002B34D1234B19
:103E50005B8A2BBB1CB9214B9B68AB4205D3FCB1E1
:103E60001E4B9B6801339D421AD91C4B9B682A3319
:103E70009D4223D8194B9B7B03BB184CA560236044
:103E80006360238242F60652628263732373FFF7F4
:103E90006DFDFFF785FD217BA068FFF7A7FD0DE015
:103EA00064B10E4B9B6801339D4207D101220B4B3D
:103EB0005A73FFF7AFFE01E0012B02D001F05EFD67
:103EC00038BD002CFAD1054B9B689D42F6D10122EA
:103ED000024B5A73FFF79EFEF0E700BF50320020FE
:103EE000014B9868704700BF50320020054B1B7B88
:103EF000012B02D0034B98687047024B9868013839
:103F0000704700BF50320020044B9B68584010F0AF
:103F1000010F00D0013B1846704700BF503200200F
:103F2000014B187B704700BF5032002008B5027863
:103F3000012A09D0022A15D07846114B1B68D3B14B
:103F400098474FF4FA7308E083685B1A98084FF4B7
:103F5000A97303FB00F303F5FA730A48984228BFDC
:103F6000184608BD83685B1A180B074B03FB00F368
:103F700003F5FA73F1E700DE4FF4FA73EDE700BFE3
:103F800098340020A0860100645E010008B5037823
:103F9000012B08D0022B0CD07846074B1B682BB1A5
:103FA0009847002008BD4FF4A97008BD00DE00202E
:103FB00008BD024808BD00BF98340020645E0100BF
:103FC0002DE9F041002722E02449B82303FB04F344
:103FD000CA5A0132CA520221404602F015FC01368B
:103FE0000221404602F0D6FB70B1B8231B4A03FB06
:103FF00004239D68002DE7D0B82303FB04F3D25AB5
:1040000001463846A847DFE796B90137FFB2022FCD
:1040100020D83C46B82303FB07F308330F4D1D445B
:1040200005F104080221404602F0B4FB0026DBE75C
:104030000021404602F074FC0828E6D1B822074B64
:1040400002FB0434A368002BDFD000220449384669
:104050009847DAE70120BDE8F08100BF7032002008
:10406000FC33030008B5082383731023437300F166
:104070001C0343610323037300F1180303610C3035
:1040800002F00CFC08BD000010B5044601210C3004
:1040900002F080FBD8B10E4AC4F89C200022C4F87C
:1040A000A0206168FFF742FFC4F8A400C4F8A8404C
:1040B000012384F8B43004F19C000AF055FE30B1BD
:1040C0007846044B1B680BB1984710BD00DE10BD4D
:1040D0000942020098340020F8B506460C461746FF
:1040E00015680378012B04D07846164B1B681BB368
:1040F00098471549A1FB0431C9098900B468641BBC
:10410000A14200D80C4624B978460E4B1B68ABB1CF
:104110009847706825F00305F16822462944284431
:10412000FFF760FA20B17846064B1B6843B1984709
:104130003B681C443C60F8BD00DEDAE700DEE8E7DF
:1041400000DEF5E798340020EB5DF260F8B5074635
:104150000C46164615680378022B04D07846154B9A
:104160001B680BB39847144BA3FB04231B0C1B03C6
:10417000BC68641BA34200D81C4624B978460D4B8A
:104180001B689BB19847786825F0030521462844B1
:10419000FFF7F8F920B17846064B1B6843B1984702
:1041A00033681C443460F8BD00DEDCE700DEEAE77B
:1041B00000DEF5E798340020B77609BB38B5054630
:1041C0000C4611462378012B08D0022B11D07846DB
:1041D0000C4B1B689BB19847002004E0021D204651
:1041E000FFF77AFFA0686B68984214BF0020012097
:1041F00038BD021D2046FFF7A9FFA068F3E700DEE7
:104200000020F0E7983400202DE9F8438846D1F8E3
:10421000A450264B1B7863B90646A5F5FA7501F143
:104220000C090121484602F0B5FA074640B10024C6
:1042300028E00AF0E9FD002388F8B430BDE8F883EF
:1042400078461B4B1B680BB19847F0E700DEEEE7A2
:104250000AF0DAFD0121484602F0D6FA0023C8F838
:10426000043088F8B430134B186801F0D7FB40468F
:10427000FFF70AFFBDE8F8833846FFF787FE2044C2
:1042800085420CD32A1B39464046FFF797FF00288A
:10429000DED100F09FFE841BEED5341AECE70AF065
:1042A000B3FD4046FFF7F0FEBDE8F8836C32002016
:1042B000983400206832002010B5084801F084FBD3
:1042C000074B1860002406E0B820064B00FB0430C2
:1042D000FFF7C8FE0134022CF6D910BDC13F020021
:1042E000683200207032002038B504460D4602289E
:1042F00004D97846054B1B6833B19847B822044B64
:1043000002FB0434A56038BD00DEF7E798340020D6
:10431000703200202DE9F84306460C4690460228EC
:1043200005D978465C4B1B68002B4CD09847002C75
:104330004BD02378012B50D0022B7AD07846564BA5
:104340001B68002B00F097809847EFF3108772B638
:10435000B82505FB06F505F10803504D1D4404354D
:104360000021284602F016FA8146002800F08D80D0
:104370000021284602F048FA20686168A268E368D4
:10438000C9F80000C9F80410C9F80820C9F80C30B1
:10439000B8F1000F06D0B823404A03FB06235B8820
:1043A000A8F80030B8233D4A03FB06235A8801329F
:1043B0005A8093F8B430002B6CD1394B1B78002B0A
:1043C0005BD0002062E000DEB1E77846324B1B682C
:1043D0000BB19847ADE700DEABE7636813F0030F5E
:1043E00004D078462C4B1B68DBB19847E36813F088
:1043F000030F04D07846284B1B68A3B19847A368E5
:1044000013F0030F04D07846234B1B686BB1984719
:10441000A368002B99D178461F4B1B683BB1984786
:1044200093E700DEE2E700DEE9E700DEF0E700DE2A
:104430008BE76368C3F30B0323B17846164B1B6805
:104440009BB19847A368C3F30B0323B17846124B83
:104450001B6863B19847A368002B7FF476AF78465A
:104460000D4B1B682BB198476FE700DEEAE700DED3
:10447000F1E700DE69E700DE67E7B820074B00FBE5
:104480000630FFF701FE002000E0042007B962B605
:10449000BDE8F8830020F9E798340020703200204E
:1044A0006C32002018B1830B024AD05C70470020A8
:1044B000704700BF0C34030012DF704700B583B0B3
:1044C0001378A3B1042B14D1072110F8013C163B3B
:1044D000152B31D8DFE803F0593030303030303030
:1044E00030303030303030303030302E0F3A517D77
:1044F000EBE70021E9E7022901D007291CD110F8D8
:10450000021C013902F0FCF8B0B1264B1B6813F015
:10451000400F11D0244B1B68012B0DDD234BD3F82A
:1045200004350190224A009287222249022002F09B
:1045300089FB01E0022902D003B05DF804FB10F80A
:10454000021C0139C9B209F037FFF5E70229F3D19E
:1045500010F8021C0139C9B203F062FF0028EBD049
:10456000104B1B6813F0400FE6D00F4B1B68012B5C
:10457000E2DD0E4BD3F8043501900F4A00929A22E7
:104580000C49022002F05EFBD6E701884FF6E46397
:104590009942D1D110F8021C03390230FCF7D4FA49
:1045A000CAE700BF001A0020FC19002000B000403C
:1045B0004C340300403403007834030070B58AB0F3
:1045C0000BF06EF9002834D0064600238DF8103029
:1045D00005AC05460FCD0FC42B682360727D052AFC
:1045E0000DD9337D03F00F03072B08D0307D04ABCA
:1045F000063A06F11D0100F00F0009F07BFF134B96
:104600001B689BB104AB0393337DC3F303038DF8A5
:104610000430737D062B13D9063B8DF8053006F167
:104620001D030293094B1B6801A8984730460BF005
:1046300011F90BF04FF980F00100C0B20AB070BD63
:1046400000238DF805300293ECE700BFA034002072
:1046500070B582B0334B1B781BB10824204602B0E2
:1046600070BD00285CD042682F4B1A60067B0EB9E3
:104670000724F3E70F2E03D0072E01D90724EDE717
:104680000546FCF783FA0DF10700FFF715FF044616
:104690000028E3D19DF80730012B01D00224DDE78B
:1046A000FCF7A8FA00F05EFB304601F003F92B7826
:1046B000012B25D0FA2001F015F80AF02FFB1B483A
:1046C0000BF0BCF90AF0EEF8FFF7F6FD03F05EF828
:1046D00004F0C2FC284601F0C7FE2846FDF742FB65
:1046E00004F0CEFA42F2107003F026FE2846FFF7DF
:1046F0001FF8FCF729FA38B1062805D00446ADE7C3
:10470000E87800F0B5F8D6E700F08EFD084809F02B
:10471000D3FE0022074B1A600122024B1A709DE75C
:104720000E249BE79D34002098340020BD450200F4
:10473000F0190020A034002010B5104B1B7813B9DD
:104740000824204610BD0E4B1B780BB10824F8E757
:1047500000F0EEFF20B178460A4B1B685BB198472A
:104760000AF0F2FA04460028EBD10BF059F80122C6
:10477000034B1A70E5E700DEF2E700BF9D3400202E
:104780009C3400209834002008B5FDF74DFB08BD8F
:104790000020704708B500F069FF002008BD08B58B
:1047A000FDF708FF08BD000010B5044618B100234E
:1047B0002360636010BD7846034B1B680BB19847BC
:1047C000F5E700DEF3E700BF9834002038B50C466B
:1047D000054668B1A4B100236360EFF3108372B69D
:1047E0002A68AAB16A6854606C6003B962B638BDC1
:1047F0007846084B1B680BB19847EBE700DEE9E70A
:104800007846044B1B680BB19847E4E700DEE2E70B
:104810002C60E9E79834002010B5044658B1EFF356
:10482000108372B6206808B142682260226852B1D3
:1048300003B962B610BD7846044B1B680BB19847AC
:10484000EDE700DEEBE76260F2E700BF983400209E
:1048500010B5044608B1206810BD7846034B1B68AC
:104860000BB19847F7E700DEF5E700BF983400206A
:10487000072814D8DFE800F0080C1504110F0A0609
:104880006420704714207047FA2070471E2070473C
:104890004FF4FA707047322070474B207047FA206F
:1048A00070479620704753B130B4013B9BB2CC5C4B
:1048B000D55C6C40C454002BF7D130BC70477047B6
:1048C00070B50C461546324E002333607360B360FA
:1048D000F36032463146FCF771F996F90030002B4F
:1048E00002DB002110230CE0002110231CE0013B1F
:1048F0009BB22748C25C5200D2B20A43E254C25C67
:10490000D109002BF3D194F90030002B1ADB0021E0
:10491000102323E0013B9BB21D48C25C5200D2B27F
:104920000A43E254C25CD109002BF3D1102306E004
:10493000013B9BB2E25C1749C95C4A40E254002B40
:10494000F6D1E0E70021102314E0013B9BB2E25CCA
:104950005200D2B20A43EA54E25CD109002BF4D1EE
:1049600070BD013B9BB2E25C5200D2B20A43EA54F2
:10497000E25CD109002BF4D1102306E0013B9BB28D
:10498000EA5C0449C95C4A40EA54002BF6D170BD88
:10499000A4340020A43403002DE9F04385B0074679
:1049A0000C461546984602F10F0636111FFA86F995
:1049B000354A3649FFF784FF354B00221A605A60AA
:1049C0009A60DA6005F00F05B9F1000F11D085B9D2
:1049D00009F1FF300001102308E0013B9BB22218CF
:1049E000D25C2A49C95C4A400DF80320002BF4D15F
:1049F00020E0B1B20139ADB22A4604EB011168469C
:104A00000EF086F880230DF805306B1C03E00022C1
:104A10000DF8032001330F2BF9DD102308E0013BD3
:104A20009BB21DF803201849C95C4A400DF80320C9
:104A3000002BF4D1002510E0013B9BB21449CA5C65
:104A400004EB0E00C05C4240CA54002BF4D1104964
:104A50000A463846FCF7B2F80135B3B2013B9D4235
:104A600003DA4FEA051E1023EFE7094C1023224614
:104A700069462046FFF717FF424621463846FCF7B5
:104A80009DF805B0BDE8F083C4340020B4340020A4
:104A9000A434002010B50446436923B178461C4B6A
:104AA0001B686BB198471B4B1B685BB16068194B67
:104AB0001B685B68C31A002B04DB164B196812E0F5
:104AC00000DEF0E7134A136863611460D3680133B2
